:100000000C943E010C9466010C9466010C946601FC
:100010000C9466010C9466010C9466010C946601C4
:100020000C9466010C9466010C9499060C94770A62
:100030000C9466010C9466010C9466010C946601A4
:100040000C9466010C9466010C9466010C94660194
:100050000C9466010C9466010C9466010C942F08B4
:100060000C9466010C940E040C94E8030C94660145
:100070000C9466010C9466010C9466010C94660164
:100080000C9466010C9466010C9466010C94660154
:100090000C9466010C9466010C9466010C94660144
:1000A0000C9466010C9466010C946601FD041F0516
:1000B00048061F05480668058B0548060D061C0600
:1000C0009407970786078A078E07B807B807B80707
:1000D0009B079F07A307A907AD07B807B307000051
:1000E0000000240027002A002D003000090299009A
:1000F000040100A0FA0904000002FF5D01001121C3
:100100000001012581140000000013010800000710
:1001100005810320000407050103200008090401EC
:100120000004FF5D03001B21000101018240010268
:1001300020168300000000000016030000000000ED
:1001400000070582032000020705020320000407C0
:100150000583032000400705030320001009040263
:100160000001FF5D02000921000101228407000750
:100170000584032000100904030000FFFD1304069A
:10018000410001010312010002FFFFFF405E048EE7
:100190000214010102030100000000250028002BC9
:1001A000002E0031000404040404030405020202CA
:1001B0000204030202020206060606060604040200
:1001C0000202040404080201104080401020408014
:1001D000408008020401804020100201108010209D
:1001E0004040200000000200090F0000030401004D
:1001F0000C000000000000000000000000000000F3
:100200000000080B000202020100090400000102C4
:10021000020000052400100105240101010424024C
:1002200006052406000107058103100040090401AA
:1002300000020A00000007050202400000070583D3
:10024000024000000403090412010002EF02014011
:100250004123368000010102030141726475696E19
:100260006F204C4C430041726475696E6F204C6581
:100270006F6E6172646F0000AC10B50C11241FBE6C
:10028000CFEFDAE0DEBFCDBF22E0A2E5B1E001C0F2
:100290001D92AC39B207E1F711E0A0E0B1E0EAE16C
:1002A000F7E202C005900D92A235B107D9F711E02F
:1002B000CDE3D1E004C02197FE010E946A11CC3346
:1002C000D107C9F70E94BB0C0C9480130C9400005A
:1002D000CF92DF92EF92FF920F931F93CF93DF9312
:1002E0006C017A018B01C0E0D0E0CE15DF0581F012
:1002F000D8016D918D01D601ED91FC910190F081B5
:10030000E02DC6010995892B11F02196EECF7E01D3
:10031000C701DF91CF911F910F91FF90EF90DF9078
:10032000CF900895089580E090E00895FC01538DEA
:10033000448D252F30E0842F90E0821B930B5417BF
:1003400010F0CF96089501970895FC01918D828D4C
:10035000981761F0828DDF01A80FB11D5D968C9119
:10036000928D9F5F9F73928F90E008958FEF9FEF24
:100370000895FC01918D828D981731F0828DE80FE0
:10038000F11D858D90E008958FEF9FEF0895FC019A
:10039000918D228D892F90E0805C9F4F821B910967
:1003A0008F739927089587E991E00E94C70121E0A2
:1003B000892B09F420E0822F0895FC01848DDF0150
:1003C000A80FB11DA35ABF4F2C91848D90E00196C8
:1003D0008F739927848FA689B7892C93A089B189B7
:1003E0008C9182748C93938D848D981306C00288AF
:1003F000F389E02D80818F7D80830895EF92FF92B5
:100400000F931F93CF93DF93EC0181E0888F9B8D37
:100410008C8D981305C0E889F989808185FD26C0F7
:10042000F62E0B8D10E00F5F1F4F0F731127E02E7C
:100430008C8DE8120CC00FB607FCFACFE889F98959
:10044000808185FFF5CFCE010E94DD01F1CF8B8D3C
:10045000FE01E80FF11DE35AFF4FF0829FB7F894B9
:100460000B8FEA89FB898081806209C09FB7F8946D
:10047000EE89FF896083E889F989808182748083AD
:100480009FBF81E090E0DF91CF911F910F91FF908E
:10049000EF900895CF93DF93EC01888D8823C9F006
:1004A000EA89FB89808185FD05C0A889B9898C917D
:1004B00086FD0FC00FB607FCF5CF808185FFF2CF18
:1004C000A889B9898C9185FFEDCFCE010E94DD010D
:1004D000E7CFDF91CF91089580E090E0892B29F05C
:1004E0000E94D30181110C94000008958091520163
:1004F00087FF11C08091E80082FD05C080915D01F9
:100500008111F8CF11C08091E8008B770BC08091EA
:100510005D01882349F08091E80080FFF8CF809149
:10052000E8008E778093E80008952091580130917B
:1005300059012617370748F06115710539F42091E4
:10054000E8002E772093E80001C0B901382F492F29
:1005500020E06115710509F441C080915D01882397
:1005600009F44FC0853009F44EC08091E80083FD46
:100570004CC08091E80082FD3EC08091E80080FF81
:10058000E8CF5091F3002091F200822F90E0952B5C
:10059000E32FF42F8E1B9F0BAF01480F591F2091A3
:1005A00000016115710559F0A22FB0E04A175B07F1
:1005B00030F421912093F10061507109EDCF822F29
:1005C00090E021E08417950709F020E08091E80091
:1005D0008E778093E8003E2F4F2FBBCF2111BDCFE8
:1005E0000AC080915D01882361F0853061F08091BF
:1005F000E80083FD0AC08091E80082FFF2CF80E02E
:10060000089582E0089583E0089581E00895FC0153
:1006100024813581232B31F421E061157105A1F08E
:10062000FB0108C0FC01808191816115710531F4E5
:1006300021E0FC018081882339F005C00E947013FD
:1006400021E0892B09F020E0822F08950F931F935A
:10065000CF93DF93EC0188819981009729F02A815B
:100660003B812617370788F48B016F5F7F4F0E940D
:100670009112009761F0998388831B830A832C81F0
:100680003D81232B11F4FC01108281E001C080E048
:10069000DF91CF911F910F910895EF92FF920F93E9
:1006A0001F93CF93DF93EC017B018A01BA010E9473
:1006B00026032881398181110DC02115310519F0DA
:1006C000C9010E940812198218821D821C821B8295
:1006D0001A8206C01D830C83B701C9010E947913D9
:1006E000CE01DF91CF911F910F91FF90EF90089570
:1006F000BF92CF92DF92EF92FF920F931F93CF930F
:10070000DF937C016B01EA0189012417350720F48E
:100710008D2FE901042F182FD70111961C921E92DC
:1007200013961C921E92129715961C921E92149765
:1007300040E050E065E471E0C7010E944D03F6011E
:1007400084819581C817D907C0F58017910708F4EF
:100750008C01D601ED91FC911197E00FF11FB08053
:1007600010826D917C916C0F7D1F6115710561F098
:10077000FB0101900020E9F73197AF01461B570BB1
:10078000C7010E944D0313C0F7018081918100973A
:1007900011F00E940812D70111961C921E92159614
:1007A0001C921E92149713961C921E921297D601B9
:1007B000ED91FC91E00FF11FB082C701DF91CF9165
:1007C0001F910F91FF90EF90DF90CF90BF90089511
:1007D0001F920F920FB60F9211242F933F934F93B6
:1007E0005F936F937F938F939F93AF93BF93EF9399
:1007F000FF9387E991E00E94DD01FF91EF91BF91A6
:10080000AF919F918F917F916F915F914F913F91A8
:100810002F910F900FBE0F901F9018951F920F925F
:100820000FB60F9211242F938F939F93EF93FF9303
:10083000E091A701F091A8018081E091AD01F091D4
:10084000AE0182FD12C090818091B0018F5F8F73E5
:100850002091B101821751F0E091B001F0E0E9562A
:10086000FE4F958F8093B00101C08081FF91EF9181
:100870009F918F912F910F900FBE0F901F90189501
:100880002091E4003091E50095E64091EC00842F42
:10089000817040FF23C08091E80080FD1DC08091E1
:1008A0005D01882399F0853099F08091EB0085FDFA
:1008B00011C04091E4005091E5002417350729F359
:1008C000915011F09A01E1CF84E0089582E00895FB
:1008D00083E0089581E0089580E008954091E80064
:1008E00042FFDDCF0895982F973068F59093E90087
:1008F000981739F07091EC002091ED005091F000C4
:1009000003C0242F762F50E021FD02C09F5FECCF63
:100910003091EB003E7F3093EB003091ED003D7F56
:100920003093ED003091EB0031603093EB00709329
:10093000EC002093ED005093F0002091EE0027FD95
:10094000E5CF80E008958F708093E90081E00895FD
:100950000F931F93CF93DF93CDB7DEB7AA970FB650
:10096000F894DEBF0FBECDBF80915D01882309F4EE
:10097000D5C11091E9001F709091EC00892F817012
:1009800090FD80E8182B1092E9008091E80083FF29
:100990008DC1E2E5F1E08091F100819321E0EA353B
:1009A000F207C9F7809153018130A1F4809152017F
:1009B000813A81F48091E800877F8093E80064E1C8
:1009C00070E08EE591E00E9495028091E8008B77BF
:1009D0008093E8008091E80083FF5AC18091520122
:1009E00090915301492F50E04A30510508F050C111
:1009F000FA01EA5AFF4F0C946A11803881F082386C
:100A000009F046C1809156018F708093E900809172
:100A1000EB0085FB882780F91092E90006C08091E1
:100A20005A0190915B01911182609091E800977F4B
:100A30009093E8008093F1001092F100F9C0282F04
:100A40002D7F09F025C1882319F0823061F020C183
:100A500080915401813009F01BC1933009F080E08E
:100A600080935B012BC080915401811127C080913C
:100A700056018F7009F40CC18093E9002091EB00BE
:100A800020FF1CC0933021F48091EB00806214C0E1
:100A90009091EB0090619093EB0021E030E0A90190
:100AA00002C0440F551F8A95E2F74093EA00109266
:100AB000EA008091EB0088608093EB001092E900DF
:100AC0008091E800877F8093E8000E947602E0C072
:100AD0008111DEC0009154010F778091E30080788E
:100AE000802B8093E3008091E800877F8093E8006B
:100AF0000E9476028091E80080FFFCCF8091E300A5
:100B000080688093E300011102C082E001C083E0AD
:100B100080935D01BDC08058823008F0B9C08091DB
:100B20005401909155018C3D53E0950779F583E090
:100B30008A838AE289834FB7F894DE01139620E016
:100B40003EE051E2E32FF0E050935700E49120FFA4
:100B500003C0E295EF703F5FEF708E2F90E0EA30B8
:100B600010F0C79601C0C0968D939D932F5F2431DE
:100B700049F74FBF8091E800877F8093E8006AE2E1
:100B800070E0CE0101960E94950241C0892F9927FD
:100B90008130910509F48EC0029709F079C089E986
:100BA00090E0ECEEF0E08AC0853089F18091E800B9
:100BB00083FD2DC08091E80082FDABC08091E800EC
:100BC00080FF1DC04091F3008091F20090E0942BD3
:100BD0008E1B9F0BBF01680F791F409100012115EB
:100BE000310509F07AC0842F90E041E0861797071D
:100BF00009F040E08091E8008E778093E8002115AD
:100C0000310509F477C080915D018111CDCF8091CC
:100C1000E8008B778093E8003BC08038C9F580916D
:100C2000E800877F8093E80080915C018093F10069
:100C30008091E8008E7747CF81112AC080915401BE
:100C400090915501992702971CF58091E800877FC4
:100C50008093E8008091540180935C010E947602A9
:100C600080915C01882371F084E080935D0142E211
:100C700061EC81E00E94730442E261EC83E00E9437
:100C8000730406C08091E30087FDEECF81E0EDCFD5
:100C90008091E80083FF0AC08091E800877F8093FD
:100CA000E8008091EB0080628093EB001F7010934E
:100CB000E90034C082E190E0E5E8F1E02091E8004D
:100CC000277F2093E8002091580130915901821725
:100CD000930708F49C0140E092CFA42FB0E06A177C
:100CE0007B0708F080CF44914093F100319621506A
:100CF000310970CF411187CF0CC080915D018823ED
:100D000009F485CF853009F482CF8091E80083FD16
:100D10007ECF8091E80082FFF0CF79CFAA960FB600
:100D2000F894DEBF0FBECDBFDF91CF911F910F9121
:100D300008951F920F920FB60F9211242F933F9395
:100D40004F935F936F937F938F939F93AF93BF93D3
:100D5000EF93FF938091E10082FF09C08091E20050
:100D600082FF05C08091E1008B7F8093E10080913C
:100D7000DA0080FF1BC08091D80080FF17C08091EF
:100D8000DA008E7F8093DA008091D90080FF0BC05B
:100D900080E189BD82E189BD09B400FEFDCF81E01B
:100DA00080935D0103C019BC10925D018091E10048
:100DB00080FF17C08091E20080FF13C08091E200A5
:100DC0008E7F8093E2008091E20080618093E20058
:100DD0008091D80080628093D80019BC85E0809310
:100DE0005D018091E10084FF2EC08091E20084FFCC
:100DF0002AC080E189BD82E189BD09B400FEFDCF32
:100E00008091D8008F7D8093D8008091E1008F7E03
:100E10008093E1008091E2008F7E8093E2008091D8
:100E2000E20081608093E20080915C01882311F0F0
:100E300084E007C08091E30087FD02C081E001C02B
:100E400083E080935D018091E10083FF31C0809158
:100E5000E20083FF2DC08091E100877F8093E10055
:100E600082E080935D0110925C018091E1008E7FB1
:100E70008093E1008091E2008E7F8093E200809178
:100E8000E20080618093E2002091000130E088E080
:100E900090E040E08217930720F44F5F880F991F7E
:100EA000F9CF4295407F426060E080E00E94730489
:100EB000FF91EF91BF91AF919F918F917F916F9132
:100EC0005F914F913F912F910F900FBE0F901F9008
:100ED0001895362F90E0FC01ED51FE4F4491FC0136
:100EE000EC53FE4F2491FC01EB55FE4F8491882377
:100EF00009F452C04423E1F150E0FA013197EF3098
:100F0000F105B0F5E05AFF4F0C946A119091800002
:100F10009F7707C0909180009F7D03C090918000D3
:100F2000977F9093800024C094B59F7702C094B5BA
:100F30009F7D94BD1DC0909190009F7707C09091B8
:100F400090009F7D03C090919000977F90939000B8
:100F50000FC09091C0009F7703C09091C0009F7D0B
:100F60009093C00005C09091C200977F9093C200FB
:100F7000E82FF0E0EE0FFF1FE956FE4FA591B49168
:100F80009FB7F894311104C08C912095282302C09A
:100F9000EC912E2B2C939FBF08950E9457134091E4
:100FA00091015091920120918F013091900142174F
:100FB0005307B4F49091E8009570E1F39091E80044
:100FC00092FD19C08093F10080919101909192015E
:100FD00001968F739927892B19F48EEF8093E8007F
:100FE000809191019091920101969093920180934A
:100FF000910181E0089580E00895615030F02091E2
:10100000F100FC0120830196F8CF289884E68093B4
:10101000950108953FB7F89480918B0190918C01D0
:10102000A0918D01B0918E0126B5A89B05C02F3FE0
:1010300019F00196A11DB11D3FBFBA2FA92F982FFE
:101040008827820F911DA11DB11DBC01CD0142E079
:10105000660F771F881F991F4A95D1F708951F9231
:101060000F920FB60F9211242F933F938F939F935C
:10107000AF93BF938091870190918801A0918901DE
:10108000B0918A013091860123E0230F2D3720F49F
:101090000196A11DB11D05C026E8230F0296A11DD2
:1010A000B11D209386018093870190938801A093BE
:1010B0008901B0938A0180918B0190918C01A0915C
:1010C0008D01B0918E010196A11DB11D80938B0100
:1010D00090938C01A0938D01B0938E01BF91AF913D
:1010E0009F918F913F912F910F900FBE0F901F9066
:1010F000189520919601211103C08FEF9FEF08955D
:101100005FB7F89422E02093E9002091F20030E0EC
:101110001216130614F421E030E0422FFC0184E69D
:10112000415038F02898809395019091F100919367
:10113000F7CF2115310521F08091F200882319F0B5
:101140005FBFC90108958BE68093E800F9CF2FB700
:10115000F89483E08093E9009091E800892F8072F1
:1011600095FF04C09091F20080E4891B2FBF089581
:101170008091400281110DC082E080933C0284E0A6
:1011800080933D0210923F0210923E0281E08093D4
:1011900040028CE392E00895CF93DF931F92CDB786
:1011A000DEB76983DC01ED91FC910280F381E02DD3
:1011B00041E050E0BE016F5F7F4F09950F90DF91D6
:1011C000CF91089583E08093E9008091F200882315
:1011D00019F08AE38093E80008950E94A70890E040
:1011E0000895CF93DF931F92CDB7DEB7FC018485BE
:1011F000958597FD05C02FEF3FEF358724870BC0FE
:10120000CE0101960E947908019719F4898190E036
:1012100002C08FEF9FEF0F90DF91CF9108950F9352
:101220001F93CF93DF931F92CDB7DEB78C01FC01E4
:101230008485958597FF0EC0CE0101960E9479089E
:10124000019719F4898190E002C08FEF9FEFF801B8
:1012500095878487F801848595850F90DF91CF91DC
:101260001F910F910895FC018485958597FD0BC012
:101270009FB7F89482E08093E9008091F2009FBFCD
:1012800090E0019608959FB7F89482E08093E9007A
:101290008091F2009FBF90E00895DF92EF92FF925D
:1012A0000F931F93CF93DF93D82EF92EE42E062FA2
:1012B00010E0C8010196880F0E94CF0783E00E94CA
:1012C000CF07CD2DDF2D0C0F1D1FC017D10789F0C3
:1012D000E7FE03C0FE01849101C088810E94CF0710
:1012E000F82E80E00E94CF078F2121968111EDCF4B
:1012F00001C081E0DF91CF911F910F91FF90EF909E
:10130000DF900895DF92EF92FF920F931F93CF9398
:10131000DF93D82E8A017B01E40EF51EEB01CE157A
:10132000DF0571F0D7FE03C0FE01849101C0888102
:101330000E94CF0721968111F2CF8FEF9FEF01C05E
:10134000C801DF91CF911F910F91FF90EF90DF9037
:1013500008950F931F93CF93DF931F92CDB7DEB7FE
:1013600082E0898342E450E062E072E080E80E941B
:1013700082090E94B808DC0112960D911C91139706
:101380000115110589F0D801ED91FC910280F381DE
:10139000E02DBE016F5F7F4FC801099597FD04C026
:1013A000F80100851185ECCF89810F90DF91CF91F5
:1013B0001F910F910895CF92DF92EF92FF920E94BA
:1013C0000A086B017C010E940A08DC01CB018C1920
:1013D0009D09AE09BF09883E9340A105B10598F368
:1013E000FF90EF90DF90CF9008958F929F92AF92F1
:1013F000BF92CF92DF92EF92FF920F931F93CF9302
:10140000DF936C017B018A0180910C01882309F430
:1014100058C080919601882309F453C080919401AB
:1014200080FF05C08091E00082608093E000E801C9
:10143000B12C8AEFA82E93E0892E2AE3922E2097D2
:1014400011F4BB20B9F10E94A708811106C0AA942B
:10145000AA20B9F10E94DB09F2CF282F30E0C21791
:10146000D3070CF48C2F9FB7F8948092E900209159
:10147000E80025FF1DC0282F30E0C21BD30BF70169
:10148000815020F041914093F100FACFE20EF31E1B
:10149000BB2019F09092E8000AC08091E80085FD19
:1014A00007C09092E800BB24B394209709F0B12CB8
:1014B0009FBFC5CF5D9884E680933B02101611064E
:1014C00044F081E090E0F6019383828380E090E035
:1014D00001C0C801DF91CF911F910F91FF90EF9054
:1014E000DF90CF90BF90AF909F908F9008951F9204
:1014F0000F920FB60F921124CF92DF92EF92FF92CC
:101500000F931F932F933F934F935F936F937F930B
:101510008F939F93AF93BF93EF93FF93CF93DF93FB
:10152000CDB7DEB76C97DEBFCDBF1092E9008091DA
:10153000E80083FFFBC168E0CE0145960E94FD07ED
:1015400082EF8093E8008D8987FF05C09091E800C5
:1015500090FFFCCF03C09EEF9093E800982F907609
:1015600009F0C6C09E894F89588D2F89F88C91113A
:101570000CC0803829F4809193018093F10002C05F
:101580001092F1001092F10045C1913051F4811197
:1015900041C14130510509F03DC1809193018D7FDA
:1015A0000BC0933061F4811135C14130510509F010
:1015B00031C1809193018260809393012BC195305A
:1015C00049F48091E80080FFFCCF822F80688093EF
:1015D000E30020C1963009F05EC00B8D1C8D22E027
:1015E0001092E9001092920110929101F21232C011
:1015F0001092900110928F010E94A90999E0BE01FA
:101600006F5F7F4FDB01E92F1D92EA95E9F7998320
:10161000FA8291E09E8390EA98879AEF99872091C9
:10162000910130919201275F3F4F3C832B838D8343
:101630001092E90010929201109291011093900182
:1016400000938F0149E050E080E00E9482090E94EF
:10165000A909E0C01093900100938F010E94B8087F
:10166000DC0112960D911C9113970115110509F4D7
:10167000BBC0D801ED91FC910480F581E02DBE0145
:101680006B5E7F4FC8010995009709F0C7C0F8014C
:1016900000851185EACF973009F445C1983021F4CF
:1016A00081E08093F100B6C0993009F0B3C0837037
:1016B00009F039C1E4E1F1E081E031E096E3208115
:1016C000211109C08EE78093EA001092EA008F8909
:1016D000809396019FC08093E9003093EB002191A5
:1016E0002093EC009093ED008F5F873041F7EACFB5
:1016F0008B8D9C8D1092E9001092920110929101B5
:101700009093900180938F01898D811153C08E89B0
:101710009D89913A49F4813209F005C147E050E0D2
:1017200065E071E080E0BBC0913209F0FCC083321B
:1017300069F48F89988DA0E0B0E0809301019093C7
:101740000201A0930301B093040164C0803269F4E4
:101750008091E80082FFFCCF67E085E091E00E9485
:10176000FD078BEF8093E80055C0823209F052C02C
:101770008F8980930C01EEEFFFE7859194918B3F69
:101780009C4D19F0E0E0F8E002C0EEEFFAE0809145
:10179000050190910601A0910701B0910801803BDD
:1017A0009440A105B10509F09EC080910C0180FF15
:1017B00079C099C00E94B808FC010281138101150B
:1017C000110509F4B0C0D801ED91FC910190F081B0
:1017D000E02DBE016B5E7F4FC801099581111AC0D3
:1017E000F80100851185EBCFF1E0FF1609F44EC03A
:1017F000F3E0FF1298C08F89882309F44AC0823031
:1018000089F440E860E186E692E00E944D09882371
:1018100009F489C08EEF8093E80088C01816190675
:10182000CCF381C0813029F440E86BE08AE592E096
:10183000ECCF833009F077C00E94B808DC01129623
:10184000ED90FC9013978E010F5F1F4F6801E1141C
:10185000F10479F0D701ED91FC910680F781E02D3C
:10186000B801C7010995080F111DF701E084F18443
:10187000EECFD8011C92F60101900020E9F73197D4
:10188000BF016C197D0940E0C601BFCF68E472E07A
:1018900002C064E472E0FB01449150E080E80E94E1
:1018A0008209B8CFEE3F2AE0F20751F080819181A2
:1018B0008737A7E79A0721F09093FF0A8093FE0AE3
:1018C00087E797E7918380838091600080933A0255
:1018D0009BE088E10FB6F894A895809360000FBE56
:1018E0009093600097CF808191818737974709F067
:1018F00091CFA8958091600088618093600080916D
:101900003A0280936000EE3FBAE0FB0739F0809125
:10191000FE0A9091FF0A918380837CCF1092FF0A88
:101920001092FE0A77CF81E28093EB006C960FB69F
:10193000F894DEBF0FBECDBFDF91CF91FF91EF9145
:10194000BF91AF919F918F917F916F915F914F91D7
:101950003F912F911F910F91FF90EF90DF90CF90CB
:101960000F900FBE0F901F901895809134029091A8
:1019700035020C940812CF93DF93CDB7DEB7629790
:101980000FB6F894DEBF0FBECDBF789484B58260E9
:1019900084BD84B5816084BD85B5826085BD85B513
:1019A000816085BD80916E00816080936E00109291
:1019B000810080918100826080938100809181000C
:1019C000816080938100809180008160809380009D
:1019D000809191008260809391008091910081605C
:1019E000809391008091900081608093900080911D
:1019F000C10084608093C1008091C10082608093A7
:101A0000C1008091C10081608093C1008091C300BA
:101A100081608093C3008091C00082608093C00089
:101A20008091C20081608093C20080917A008460BE
:101A300080937A0080917A00826080937A0080910E
:101A40007A00816080937A0080917A008068809328
:101A50007A00109296011092930110929401809155
:101A6000D70081608093D70080EA8093D80089B541
:101A7000806189BD89B5826089BD09B400FEFDCF52
:101A80000E94DB098091D8008F7C80618093D80010
:101A90008091E000807F8093E0008091E1008E7E65
:101AA0008093E1008DE08093E200559A209AE1ED69
:101AB000F1E02491E2EBF1E08491882399F090E049
:101AC000880F991FFC01E252FF4FA591B491FC01D0
:101AD000E956FE4F859194918FB7F894EC91E22BE3
:101AE000EC938FBF60E08DE00E94690780E88093EF
:101AF00061001092610085B7806885BF85B78068F6
:101B000085BFE091A701F091A80182E08083E09178
:101B1000A301F091A4011082E091A501F091A6012A
:101B20008FEC80831092AF01E091AB01F091AC019A
:101B300086E08083E091A901F091AA018081806113
:101B40008083E091A901F091AA018081886080835F
:101B5000E091A901F091AA01808180688083E091E1
:101B6000A901F091AA0180818F7D80839FE088E1A7
:101B70000FB6F894A895809360000FBE9093600014
:101B800084E1EEE5F1E0DF01982F1D929A95E9F7E7
:101B900080935F018091D8008F7E8093D8008091E0
:101BA000D70081608093D70084E082BF81E080937A
:101BB00072018091D8008E7F8093D8001092E2004D
:101BC0001092DA001092E1008091D8008F77809314
:101BD000D8008091D80080688093D8008091D80088
:101BE0008F7D8093D80019BC10925D0110925C012A
:101BF00010925B0110925A01ECE8F1E0E491E0935D
:101C000000018091E0008B7F8093E0008091D800FC
:101C100081608093D8002091000130E088E090E05E
:101C200040E08217930720F44F5F880F991FF9CF88
:101C30004295407F426060E080E00E9473048091A2
:101C4000E1008E7F8093E1008091E20081608093CB
:101C5000E2008091E20088608093E2008091E000E1
:101C60008E7F8093E0008091D80080618093D800BF
:101C700078948FE78093730180937401809383013C
:101C800080938401FF24F394EE24EA949FE7792E55
:101C9000CC24C394DC2CAA24AA943EEFB32EA8959E
:101CA00087E991E00E94C701892B61F187E991E002
:101CB0000E94A501982E89831A8200913802109102
:101CC00039020F5F1F4FB80184E392E00E942603A0
:101CD000882399F0209134023091350280913802A6
:101CE00090913902BE016F5F7F4F820F931F0E9458
:101CF00079131093390200933802AAE09A1202C0B5
:101D0000F092850180918501882309F418C1109211
:101D10008501209138023091390241E050E064E3BE
:101D200072E0CE010D960E94780389899A89892BE9
:101D300069F00D851E856DE270E0C8010E94651393
:101D4000009721F09C01201B310B02C02FEF3FEFC9
:101D500040E050E0BE01635F7F4FCE0107960E94D6
:101D6000780309891A890115110569F08D849E840B
:101D70006DE270E0C4010E946513009721F0AC0190
:101D80004819590902C04FEF5FEF4F5F5F4F98014D
:101D9000BE01635F7F4FCE0101960E947803898167
:101DA0009A81009721F00E94F710062F01C000E0F1
:101DB00011E0013009F410E0612F8DE00E94690705
:101DC0006EE371E0CE0107960E940703882341F07D
:101DD000013019F0109284019EC0709284019BC062
:101DE00060E471E0CE0107960E940703882329F082
:101DF000013099F3E09284018EC062E471E0CE017B
:101E000007960E940703882341F0013019F01092D1
:101E1000830181C0709283017EC064E471E0CE01D1
:101E200007960E940703882329F0013099F3E09276
:101E3000830171C066E471E0CE0107960E9407033A
:101E4000882319F01093820166C069E471E0CE0125
:101E500007960E940703882319F0109381015BC045
:101E60006CE471E0CE0107960E940703882319F005
:101E70001093800150C06FE471E0CE0107960E947C
:101E80000703882319F010937F0145C08F8198853F
:101E9000009719F00E94F71003C060E070E0CB01DA
:101EA0006150710919F410937E0135C061307105DC
:101EB00019F410937D012FC06230710519F410934D
:101EC0007C0129C06330710519F410937B0123C094
:101ED0006430710519F410937A011DC065307105E5
:101EE00019F41093790117C06630710519F4109335
:101EF000780111C06730710519F4109377010BC098
:101F00006830710519F41093760105C069307105C8
:101F100011F41093750140E050E065E471E084E352
:101F200092E00E944D0389819A810E9408128F815C
:101F300098850E9408128D859E850E9408129091B6
:101F4000800180916001992311F0816001C08E7F32
:101F50008093600190917F0180916001992311F03D
:101F6000826001C08D7F8093600190918201809199
:101F70006001992311F0846001C08B7F8093600120
:101F80009091810180916001992311F0886001C0D6
:101F9000877F8093600120917A01809160012223E4
:101FA00011F0806101C08F7E809360019091790172
:101FB00080916001992311F0806201C08F7D809330
:101FC00060013091760180916001332311F08064CB
:101FD00001C08F7B80936001309175018091600119
:101FE000332311F0806801C08F77809360013091B6
:101FF0007E0180916101332311F0806101C08F7EE9
:102000008093610130917D0180916101332311F052
:10201000806201C08F7D8093610130917C0180914D
:102020006101332311F0806401C08F7B80936101D3
:1020300030917B0180916101332311F0806801C0F0
:102040008F77809361013091780180916101332312
:1020500011F0816001C08E7F809361013091770122
:1020600080916101332311F0826001C08D7F8093E4
:10207000610180916101222321F0992311F0846094
:1020800001C08B7F80936101209184012C9DC00150
:102090002D9D900D112490589093650180936401BB
:1020A000209183012A9DC0012B9D900D1124815008
:1020B00090489093670180936601209174012C9D54
:1020C000C0012D9D900D112490589093690180932B
:1020D0006801209173012A9DC0012B9D900D112450
:1020E0008150904890936B0180936A0180915D01CB
:1020F000843069F5F092E9008091E80080FF27C004
:102100000E94400481111EC004E110E08EE5882E7B
:1021100081E0982E08C0F40181914F018093F10075
:102120000150110979F08091E80085FDF4CF80918C
:10213000E8008E778093E8000E94A8040E94400483
:10214000882389F38091E8008E778093E8000E94CD
:10215000A8040E946C02A3CDE8E4F2E0138212828C
:1021600088EE93E0A0E0B0E084839583A683B783F4
:102170002EE131E0318320832FEF3FEF3587248735
:10218000E7E9F1E01382128284839583A683B78303
:1021900080E391E0918380838DEC90E09587848744
:1021A0008CEC90E09787868788EC90E0918B808B11
:1021B00089EC90E0938B828B8AEC90E0958B848BFA
:1021C0008EEC90E0978B868B118E128E138E148E70
:1021D000E4E3F2E0118210821382128215821482EB
:1021E00040E050E065E471E0CF010C944D031F9393
:1021F000FC0199278827BC01E89411911032E9F37A
:10220000193010F01E30C8F31B3251F01D3249F462
:10221000689406C00E941E11610F711D811D911DE1
:10222000119110531A30B0F33EF49095809570954B
:1022300061957F4F8F4F9F4F1F910895592F482FC2
:10224000372F262F660F771F881F991F660F771F5E
:10225000881F991F620F731F841F951F660F771FBA
:10226000881F991F08952F923F924F925F926F920D
:102270007F928F929F92AF92BF92CF92DF92EF9216
:10228000FF920F931F93CF93DF93CDB7DEB7CA1B97
:10229000DB0B0FB6F894DEBF0FBECDBF09942A88C2
:1022A000398848885F846E847D848C849B84AA846A
:1022B000B984C884DF80EE80FD800C811B81AA81F7
:1022C000B981CE0FD11D0FB6F894DEBF0FBECDBFC2
:1022D000ED010895EE0FFF1F0590F491E02D099494
:1022E0000F931F93CF93DF938230910510F482E018
:1022F00090E0E0919A02F0919B0220E030E0A0E0B3
:10230000B0E0309719F14081518102811381481763
:102310005907C8F08417950769F4109731F01296A1
:102320000C93129713961C9327C000939A02109354
:102330009B0222C02115310519F04217530718F4EA
:102340009A01BD01EF01DF01F801DBCF2115310555
:10235000F9F0281B390B2430310580F48A819B81E8
:102360006115710521F0FB019383828304C0909372
:102370009B0280939A02FE01329644C0FE01E20F56
:10238000F31F8193919322503109398328833AC0F6
:102390002091980230919902232B41F420910F0152
:1023A00030911001309399022093980220910D01F1
:1023B00030910E012115310541F42DB73EB7409102
:1023C000110150911201241B350BE0919802F091FC
:1023D0009902E217F307A0F42E1B3F0B28173907C9
:1023E00078F0AC014E5F5F4F2417350748F04E0F71
:1023F0005F1F50939902409398028193919302C07A
:10240000E0E0F0E0CF01DF91CF911F910F910895AF
:10241000CF93DF93009709F481C0FC0132971382B8
:102420001282A0919A02B0919B02109781F42081B0
:102430003181820F931F20919802309199022817C1
:10244000390751F5F0939902E093980267C0ED01C6
:1024500020E030E0CE17DF0740F44A815B819E0127
:1024600041155105F1F0EA01F5CFD383C2834081D4
:102470005181840F951FC817D90759F48881998114
:10248000840F951F0296918380838A819B81938319
:1024900082832115310529F4F0939B02E0939A027F
:1024A0003DC0E901FB83EA8349915991C40FD51FCF
:1024B000EC17FD0761F480819181840F951F0296CE
:1024C000E90199838883828193819B838A83E0E0F9
:1024D000F0E012968D919C911397009719F0FD01F1
:1024E000DC01F7CF8D919C9111979D012E5F3F4F9D
:1024F000820F931F20919802309199022817390773
:1025000069F4309729F410929B0210929A0202C04B
:1025100013821282B0939902A0939802DF91CF9117
:102520000895A0E0B0E0E7E9F2E10C943711EC0186
:10253000009721F4CB010E947011B4C0FC01E60F9A
:10254000F71F9C0122503109E217F30708F4A8C0D5
:10255000D9010D911C91119706171707B0F005309E
:10256000110508F49BC0C80104978617970708F463
:1025700095C002501109061B170B019311936D931F
:102580007C93CF010E94081289C05B01A01AB10A96
:102590004C01800E911EA0919A02B0919B02612C79
:1025A000712CE12CF12C109709F446C08D919C916F
:1025B0001197A815B905B1F56C0142E0C40ED11C04
:1025C000CA14DB0478F14C018A189B08640142E0CC
:1025D000C40ED11C1296BC9012971396AC91B5E024
:1025E000CB16D10440F0B282A38391828082D901BC
:1025F0006D937C9309C00E5F1F4F800F911FF901EF
:1026000091838083EB2DFA2FE114F10431F0D7018F
:102610001396FC93EE93129741C0F0939B02E093C4
:102620009A023CC06816790608F43C017D011296B6
:102630000D90BC91A02DB7CF8091980290919902F6
:1026400088169906E1F466167706C8F480910D01A4
:1026500090910E01009741F48DB79EB74091110102
:1026600050911201841B950BE817F907C8F4F093F9
:102670009902E0939802F901718360830FC0CB0146
:102680000E9470117C01009759F0A801BE010E94C0
:102690005C13CE010E940812C70104C0CE0102C023
:1026A00080E090E0CDB7DEB7EEE00C94531181E00E
:1026B00090E0F8940C948013FB01DC0102C00190BF
:1026C0000D9241505040D8F70895FC018191861732
:1026D00021F08823D9F7992708953197CF010895DC
:1026E000FB01DC018D91019080190110D9F3990B48
:1026F0000895FB01DC0101900D920020E1F708959F
:1027000011E0CDE3D1E004C0FE010E946A112196E0
:0A271000CE33D107C9F7F894FFCFCC
:10271A0008FFFFFFFF00E100000000000000009C2E
:10272A0002800000C1808100000000000000CC0887
:10273A00F509ED08E2083309F1080F090000000065
:10274A00FE01680196014A02C701A501B9014C00C0
:10275A005200550044004C48005248005548004475
:02276A00480025
:00000001FF
