:100000000C9474010C949C010C949C010C949C0124
:100010000C949C010C949C010C949C010C949C01EC
:100020000C949C010C949C010C949C010C940A0966
:100030000C949C010C949C010C949C010C949C01CC
:100040000C949C010C949C010C949C010C949C01BC
:100050000C949C010C949C010C949C010C94300613
:100060000C949C010C943B070C9415070C949C0178
:100070000C949C010C949C010C949C010C949C018C
:100080000C949C010C949C010C949C010C949C017C
:100090000C949C010C949C010C949C010C949C016C
:1000A0000C949C010C949C010C949C01FA031C047C
:1000B000A1051C04A10561048404A105640577055C
:1000C000730B760B650B690B6D0B970B970B970BEF
:1000D0007A0B7E0B820B880B8C0B970B920B00001C
:1000E0000000240027002A002D003000090299009A
:1000F000040100A0FA0904000002FF5D01001121C3
:100100000001012581140000000013010800000710
:1001100005810320000407050103200008090401EC
:100120000004FF5D03001B21000101018240010268
:1001300020168300000000000016030000000000ED
:1001400000070582032000020705020320000407C0
:100150000583032000400705030320001009040263
:100160000001FF5D02000921000101228407000750
:100170000584032000100904030000FFFD1304069A
:10018000410001010312010002FFFFFF405E048EE7
:1001900002140101020301080331002E00300000A7
:1001A0000040034B0041004400450020002D00208A
:1001B000004B00690063006B002000410073007376
:1001C000002000440079006E0061006D006900634A
:1001D00000200045006E0063006F0064006500723F
:1001E0000000001A036B006100640065007600697E
:1001F00000630065002E006E0065007400000004BE
:1002000003090400000000250028002B002E003107
:1002100000040404040403040502020202040302AD
:10022000020202060606060606040402020204048E
:1002300004080201104080401020408040800802E5
:100240000401804020100201108010204040200056
:1002500000000200090F0000030401000C00000070
:100260000000000000000000000000000000080B7B
:100270000002020201000904000001020200000560
:1002800024001001052401010104240206052406AE
:1002900000010705810310004009040100020A0063
:1002A000000007050202400000070583024000002D
:1002B0000403090412010002EF02014041233680C9
:1002C00000010102030141726475696E6F204C4C9C
:1002D000430041726475696E6F204C656F6E617288
:1002E000646F0000BB0FB50F11241FBECFEFDAE023
:1002F000DEBFCDBF22E0A2E5B1E001C01D92AB3868
:10030000B207E1F711E0A0E0B1E0E8E3F5E202C0F6
:1003100005900D92A235B107D9F711E0C3E7D1E0FE
:1003200004C02197FE010E947910C237D107C9F796
:100330000E946C0C0C948F120C940000CF92DF92F0
:10034000EF92FF920F931F93CF93DF936C017A018B
:100350008B01C0E0D0E0CE15DF0581F0D8016D91B2
:100360008D01D601ED91FC910190F081E02DC60147
:100370000995892B11F02196EECF7E01C701DF91FF
:10038000CF911F910F91FF90EF90DF90CF90089544
:10039000089580E090E00895FC01538D448D252F51
:1003A00030E0842F90E0821B930B541710F0CF960F
:1003B000089501970895FC01918D828D981761F041
:1003C000828DDF01A80FB11D5D968C91928D9F5F8C
:1003D0009F73928F90E008958FEF9FEF0895FC0137
:1003E000918D828D981731F0828DE80FF11D858DEA
:1003F00090E008958FEF9FEF0895FC01918D228D7D
:10040000892F90E0805C9F4F821B91098F73992701
:10041000089581E891E00E94FD0121E0892B09F413
:1004200020E0822F0895FC01848DDF01A80FB11D0B
:10043000A35ABF4F2C91848D90E001968F7399271A
:10044000848FA689B7892C93A089B1898C918274F5
:100450008C93938D848D981306C00288F389E02DC8
:1004600080818F7D80830895EF92FF920F931F9379
:10047000CF93DF93EC0181E0888F9B8D8C8D981357
:1004800005C0E889F989808185FD26C0F62E0B8D8F
:1004900010E00F5F1F4F0F731127E02E8C8DE812B5
:1004A0000CC00FB607FCFACFE889F989808185FF77
:1004B000F5CFCE010E941302F1CF8B8DFE01E80F24
:1004C000F11DE35AFF4FF0829FB7F8940B8FEA8932
:1004D000FB898081806209C09FB7F894EE89FF890B
:1004E0006083E889F9898081827480839FBF81E07D
:1004F00090E0DF91CF911F910F91FF90EF900895C1
:10050000CF93DF93EC01888D8823C9F0EA89FB89BA
:10051000808185FD05C0A889B9898C9186FD0FC0B1
:100520000FB607FCF5CF808185FFF2CFA889B98986
:100530008C9185FFEDCFCE010E941302E7CFDF91B2
:10054000CF91089580E090E0892B29F00E94090264
:1005500081110C94000008952091E4003091E50091
:1005600095E64091EC00842F817040FF23C080917C
:10057000E80080FD1DC080915E01882399F08530E0
:1005800099F08091EB0085FD11C04091E4005091FD
:10059000E5002417350729F3915011F09A01E1CFB6
:1005A00084E0089582E0089583E0089581E008954D
:1005B00080E008954091E80042FFDDCF08958091EA
:1005C000520187FF11C08091E80082FD05C0809133
:1005D0005E018111F8CF11C08091E8008B770BC0CC
:1005E00080915E01882349F08091E80080FFF8CF78
:1005F0008091E8008E778093E8000895982F9730D7
:1006000068F59093E900981739F07091EC0020910B
:10061000ED005091F00003C0242F762F50E021FD13
:1006200002C09F5FECCF3091EB003E7F3093EB0038
:100630003091ED003D7F3093ED003091EB00316063
:100640003093EB007093EC002093ED005093F0009A
:100650002091EE0027FDE5CF80E008958F70809314
:10066000E90081E008952091580130915901261741
:10067000370748F06115710539F42091E8002E77AD
:100680002093E80001C0B901382F492F20E06115FF
:10069000710509F441C080915E01882309F44FC0BF
:1006A000853009F44EC08091E80083FD4CC08091F4
:1006B000E80082FD3EC08091E80080FFE8CF5091C5
:1006C000F3002091F200822F90E0952BE32FF42F7E
:1006D0008E1B9F0BAF01480F591F20910001611520
:1006E000710559F0A22FB0E04A175B0730F4219151
:1006F0002093F10061507109EDCF822F90E021E04D
:100700008417950709F020E08091E8008E778093A8
:10071000E8003E2F4F2FBBCF2111BDCF0AC08091E3
:100720005E01882361F0853061F08091E80083FDEF
:100730000AC08091E80082FFF2CF80E0089582E055
:10074000089583E0089581E008950F931F93CF9358
:10075000DF93CDB7DEB7AA970FB6F894DEBF0FBE12
:10076000CDBF80915E01882309F402C21091E90097
:100770001F709091EC00892F817090FD80E8182BFC
:100780001092E9008091E80083FFE9C1E2E5F1E021
:100790008091F100819321E0EA35F207C9F7809159
:1007A00053018130A1F480915201813A81F480910A
:1007B000E800877F8093E80064E170E080E691E0E4
:1007C0000E9433038091E8008B778093E80080914A
:1007D000E80083FFB6C18091520190915301492FE7
:1007E00050E04A30510508F0ACC1FA01EA5AFF4F17
:1007F0000C947910803881F0823809F0A2C1809180
:1008000056018F708093E9008091EB0085FB88276B
:1008100080F91092E90006C080915A0190915B0125
:10082000911182609091E800977F9093E800809307
:10083000F1001092F10053C1282F2D7F09F081C1E2
:10084000882319F0823061F07CC18091540181309D
:1008500009F077C1933009F080E080935B012BC0F1
:1008600080915401811127C0809156018F7009F445
:1008700068C18093E9002091EB0020FF1CC09330F9
:1008800021F48091EB00806214C09091EB009061A4
:100890009093EB0021E030E0A90102C0440F551F06
:1008A0008A95E2F74093EA001092EA008091EB000B
:1008B00088608093EB001092E9008091E800877FC8
:1008C00011C181113EC1009154010F778091E30065
:1008D0008078802B8093E3008091E800877F80936D
:1008E000E8000E94DF028091E80080FFFCCF809149
:1008F000E30080688093E300011102C082E001C040
:1009000083E080935E011DC18058823008F019C1D8
:1009100080915401909155018C3D53E0950779F5F4
:1009200083E08A838AE289834FB7F894DE011396C5
:1009300020E03EE051E2E32FF0E050935700E491D5
:1009400020FF03C0E295EF703F5FEF708E2F90E0C5
:10095000EA3010F0C79601C0C0968D939D932F5F2B
:10096000243149F74FBF8091E800877F8093E800EA
:100970006AE270E0CE0101960E9433039FC0292FE6
:1009800033272230310541F02330310551F0213039
:10099000310509F0D6C0E7C089E990E0ECEEF0E05F
:1009A0002DC0992781309105B9F070F08230910502
:1009B000D9F0039709F0C5C0E7E9F1E0E4918E2F83
:1009C00090E0E7E9F1E017C0EFEFF1E0E4918E2F5E
:1009D00090E0EFEFF1E00FC0E3EEF1E0E4918E2F55
:1009E00090E0E3EEF1E007C0E1EAF1E0E4918E2F60
:1009F00090E0E1EAF1E0009709F4A3C02091E8005B
:100A0000277F2093E80020915801309159018217E7
:100A1000930708F49C0140E02115310509F43DC01D
:100A200080915E01882309F449C0853009F446C0ED
:100A30008091E80083FD42C08091E80082FD3AC0C9
:100A40008091E80080FFE8CF4091F3008091F200B0
:100A500090E0942B8E1B9F0BBF01680F791F409174
:100A600000012115310561F0A42FB0E06A177B0762
:100A700038F444914093F100319621503109ECCF84
:100A8000842F90E041E08617970709F040E08091BD
:100A9000E8008E778093E800BFCF4111C1CF0AC034
:100AA00080915E01882351F0853041F08091E8000B
:100AB00083FD04C08091E80082FFF2CF8091E800BE
:100AC0008B778093E8003DC08038D9F58091E800AD
:100AD000877F8093E80080915C018093F100809192
:100AE000E8008E778093E8000E94DF022AC081111F
:100AF00028C08091540190915501992702970CF5D7
:100B00008091E800877F8093E80000915401009372
:100B10005C010E94DF02002371F084E080935E019B
:100B200042E261EC81E00E94FE0242E261EC83E07D
:100B30000E94FE0206C08091E30087FDEECF81E0B7
:100B4000EDCF8091E80083FF0AC08091E800877FA5
:100B50008093E8008091EB0080628093EB001F702F
:100B60001093E90005C082E190E0E5E8F1E046CFAE
:100B7000AA960FB6F894DEBF0FBECDBFDF91CF911E
:100B80001F910F9108950E946612FC012481358106
:100B9000232B31F421E061157105A1F0FB0108C0A0
:100BA000FC01808191816115710531F421E0FC0126
:100BB0008081882339F005C00E947F1221E0892BB3
:100BC00009F020E0822F08950F931F93CF93DF93B6
:100BD000EC0188819981009729F02A813B812617B1
:100BE000370788F48B016F5F7F4F0E94A011009739
:100BF00061F0998388831B830A832C813D81232B99
:100C000011F4FC01108281E001C080E0DF91CF91FE
:100C10001F910F9108953FB7F89480917A019091B8
:100C20007B01A0917C01B0917D0126B5A89B05C0F8
:100C30002F3F19F00196A11DB11D3FBFBA2FA92F5B
:100C4000982F8827820F911DA11DB11DBC01CD01D8
:100C500042E0660F771F881F991F4A95D1F70895C4
:100C60001F920F920FB60F9211242F933F938F93E1
:100C70009F93AF93BF938091760190917701A0915C
:100C80007801B09179013091750123E0230F2D3760
:100C900020F40196A11DB11D05C026E8230F029680
:100CA000A11DB11D2093750180937601909377016A
:100CB000A0937801B093790180917A0190917B01A2
:100CC000A0917C01B0917D010196A11DB11D809381
:100CD0007A0190937B01A0937C01B0937D01BF9139
:100CE000AF919F918F913F912F910F900FBE0F90D9
:100CF0001F901895EF92FF920F931F93CF93DF935E
:100D0000EC017B018A01BA010E94E4052881398146
:100D100081110DC02115310519F0C9010E9417116B
:100D2000198218821D821C821B821A8206C01D83B2
:100D30000C83B701C9010E948812CE01DF91CF91C7
:100D40001F910F91FF90EF900895BF92CF92DF9285
:100D5000EF92FF920F931F93CF93DF937C016B0170
:100D6000EA0189012417350720F48D2FE901042FAA
:100D7000182FD70111961C921E9213961C921E9248
:100D8000129715961C921E92149740E050E065E46D
:100D900071E0C7010E947A06F60184819581C81727
:100DA000D907C0F58017910708F48C01D601ED91A1
:100DB000FC911197E00FF11FB08010826D917C9132
:100DC0006C0F7D1F6115710561F0FB010190002022
:100DD000E9F73197AF01461B570BC7010E947A060E
:100DE00013C0F70180819181009711F00E941711C3
:100DF000D70111961C921E9215961C921E92149762
:100E000013961C921E921297D601ED91FC91E00F61
:100E1000F11FB082C701DF91CF911F910F91FF9019
:100E2000EF90DF90CF90BF9008951F920F920FB672
:100E30000F9211242F933F934F935F936F937F9360
:100E40008F939F93AF93BF93EF93FF9381E891E0CC
:100E50000E941302FF91EF91BF91AF919F918F91EB
:100E60007F916F915F914F913F912F910F900FBEA6
:100E70000F901F9018951F920F920FB60F9211248A
:100E80002F938F939F93EF93FF93E0919101F091B4
:100E900092018081E0919701F091980182FD12C04A
:100EA000908180919A018F5F8F7320919B018217AF
:100EB00051F0E0919A01F0E0EF57FE4F958F80934B
:100EC0009A0101C08081FF91EF919F918F912F91A5
:100ED0000F900FBE0F901F90189520918001211147
:100EE00003C08FEF9FEF08955FB7F89422E020933F
:100EF000E9002091F20030E01216130614F421E00C
:100F000030E0422FFC0184E6415038F0289880936D
:100F100036029091F1009193F7CF2115310521F020
:100F20008091F200882319F05FBFC90108958BE614
:100F30008093E800F9CF2FB7F89483E08093E9001D
:100F40009091E800892F807295FF04C09091F20083
:100F500080E4891B2FBF089580912E0281110DC05E
:100F600082E080932A0284E080932B0210922D026B
:100F700010922C0281E080932E028AE292E0089582
:100F8000CF93DF931F92CDB7DEB76983DC01ED917C
:100F9000FC910280F381E02D41E050E0BE016F5FE3
:100FA0007F4F09950F90DF91CF91089583E0809353
:100FB000E9008091F200882319F08AE38093E80029
:100FC00008950E949B0790E00895CF93DF931F92AE
:100FD000CDB7DEB7FC018485958597FD05C02FEF61
:100FE0003FEF358724870BC0CE0101960E946D0725
:100FF000019719F4898190E002C08FEF9FEF0F9065
:10100000DF91CF9108950F931F93CF93DF931F929A
:10101000CDB7DEB78C01FC018485958597FF0EC0A6
:10102000CE0101960E946D07019719F4898190E025
:1010300002C08FEF9FEFF80195878487F8018485C0
:1010400095850F90DF91CF911F910F910895FC012D
:101050008485958597FD0BC09FB7F89482E08093B7
:10106000E9008091F2009FBF90E0019608959FB73C
:10107000F89482E08093E9008091F2009FBF90E0B5
:101080000895409126025091270220912402309128
:10109000250242175307B4F49091E8009570E1F3EC
:1010A0009091E80092FD19C08093F1008091260292
:1010B0009091270201968F739927892B19F48EEF4F
:1010C0008093E800809126029091270201969093E8
:1010D00027028093260281E0089580E00895DF9240
:1010E000EF92FF920F931F93CF93DF93D82EF92E99
:1010F000E42E062F10E0C8010196880F0E944108D7
:1011000083E00E944108CD2DDF2D0C0F1D1FC0175D
:10111000D10789F0E7FE03C0FE01849101C08881F8
:101120000E944108F82E80E00E9441088F212196FC
:101130008111EDCF01C081E0DF91CF911F910F911F
:10114000FF90EF90DF900895DF92EF92FF920F9360
:101150001F93CF93DF93D82E8A017B01E40EF51EF7
:10116000EB01CE15DF0571F0D7FE03C0FE018491BF
:1011700001C088810E94410821968111F2CF8FEF32
:101180009FEF01C0C801DF91CF911F910F91FF9098
:10119000EF90DF9008950F931F93CF93DF931F92EB
:1011A000CDB7DEB782E0898342E450E06EE672E0BC
:1011B00080E80E94A4080E94AC07DC0112960D9101
:1011C0001C9113970115110589F0D801ED91FC913F
:1011D0000280F381E02DBE016F5F7F4FC80109954A
:1011E00097FD04C0F80100851185ECCF89810F902F
:1011F000DF91CF911F910F910895615030F02091B0
:10120000F100FC0120830196F8CF289884E68093B2
:10121000360208951F920F920FB60F921124CF92AB
:10122000DF92EF92FF920F931F932F933F934F9371
:101230005F936F937F938F939F93AF93BF93EF933E
:10124000FF93CF93DF93CDB7DEB76C97DEBFCDBFF3
:101250001092E9008091E80083FFFBC168E0CE01B5
:1012600045960E94FD0882EF8093E8008D8987FFF4
:1012700005C09091E80090FFFCCF03C09EEF9093D3
:10128000E800982F907609F0C6C09E894F89588D46
:101290002F89F88C91110CC0803829F480917E013F
:1012A0008093F10002C01092F1001092F10045C14C
:1012B000913051F4811141C14130510509F03DC1D6
:1012C00080917E018D7F0BC0933061F4811135C117
:1012D0004130510509F031C180917E0182608093D7
:1012E0007E012BC1953049F48091E80080FFFCCF4E
:1012F000822F80688093E30020C1963009F05EC0A1
:101300000B8D1C8D22E01092E900109227021092A2
:101310002602F21232C010922502109224020E947C
:10132000CB0899E0BE016F5F7F4FDB01E92F1D9273
:10133000EA95E9F79983FA8291E09E8390EA98878B
:101340009AEF99872091260230912702275F3F4F1D
:101350003C832B838D831092E90010922702109218
:101360002602109325020093240249E050E080E019
:101370000E94A4080E94CB08E0C0109325020093AD
:1013800024020E94AC07DC0112960D911C91139768
:101390000115110509F4BBC0D801ED91FC91048041
:1013A000F581E02DBE016B5E7F4FC8010995009766
:1013B00009F0C7C0F80100851185EACF973009F41C
:1013C00045C1983021F481E08093F100B6C0993096
:1013D00009F0B3C0837009F039C1E4E1F1E081E0C4
:1013E00031E096E32081211109C08EE78093EA0065
:1013F0001092EA008F89809380019FC08093E9005A
:101400003093EB0021912093EC009093ED008F5FDF
:10141000873041F7EACF8B8D9C8D1092E9001092B6
:101420002702109226029093250280932402898D30
:10143000811153C08E899D89913A49F4813209F016
:1014400005C147E050E065E071E080E0BBC091324B
:1014500009F0FCC0833269F48F89988DA0E0B0E078
:101460008093010190930201A0930301B0930401C2
:1014700064C0803269F48091E80082FFFCCF67E0AD
:1014800085E091E00E94FD088BEF8093E80055C055
:10149000823209F052C08F8980930C01EEEFFFE792
:1014A000859194918B3F9C4D19F0E0E0F8E002C0EB
:1014B000EEEFFAE08091050190910601A0910701FD
:1014C000B0910801803B9440A105B10509F09EC090
:1014D00080910C0180FF79C099C00E94AC07FC018B
:1014E000028113810115110509F4B0C0D801ED91F5
:1014F000FC910190F081E02DBE016B5E7F4FC80131
:10150000099581111AC0F80100851185EBCFF1E032
:10151000FF1609F44EC0F3E0FF1298C08F898823AC
:1015200009F44AC0823089F440E860E182ED92E03B
:101530000E946F08882309F489C08EEF8093E80029
:1015400088C018161906CCF381C0813029F440E810
:101550006BE086EC92E0ECCF833009F077C00E941C
:10156000AC07DC011296ED90FC9013978E010F5F93
:101570001F4F6801E114F10479F0D701ED91FC915E
:101580000680F781E02DB801C7010995080F111DEC
:10159000F701E084F184EECFD8011C92F6010190AE
:1015A0000020E9F73197BF016C197D0940E0C601C1
:1015B000BFCF64EB72E002C060EB72E0FB014491CC
:1015C00050E080E80E94A408B8CFEE3F2AE0F2077E
:1015D00051F0808191818737A7E79A0721F0909396
:1015E000FF0A8093FE0A87E797E7918380838091C3
:1015F0006000809328029BE088E10FB6F894A895DC
:10160000809360000FBE9093600097CF808191819E
:101610008737974709F091CFA8958091600088613E
:10162000809360008091280280936000EE3FBAE0D2
:10163000FB0739F08091FE0A9091FF0A9183808325
:101640007CCF1092FF0A1092FE0A77CF81E280933E
:10165000EB006C960FB6F894DEBF0FBECDBFDF91E6
:10166000CF91FF91EF91BF91AF919F918F917F911A
:101670006F915F914F913F912F911F910F91FF902B
:10168000EF90DF90CF900F900FBE0F901F901895A6
:10169000362F90E0FC01E15BFD4F4491FC01E05DE1
:1016A000FD4F2491FC01EF5EFD4F8491882309F4E6
:1016B00052C04423E1F150E0FA013197EF30F105D7
:1016C000B0F5E05AFF4F0C947910909180009F770D
:1016D00007C0909180009F7D03C090918000977F0C
:1016E0009093800024C094B59F7702C094B59F7DED
:1016F00094BD1DC0909190009F7707C0909190007D
:101700009F7D03C090919000977F909390000FC0B1
:101710009091C0009F7703C09091C0009F7D9093EF
:10172000C00005C09091C200977F9093C200E82F3F
:10173000F0E0EE0FFF1FED5FFD4FA591B4919FB755
:10174000F894311104C08C912095282302C0EC91AB
:101750002E2B2C939FBF08958F929F92AF92BF9292
:10176000CF92DF92EF92FF926B017C010E940B06F9
:101770004B015C01C114D104E104F104F1F00E94B9
:101780000B06DC01CB0188199909AA09BB09883E1F
:101790009340A105B10570F321E0C21AD108E10818
:1017A000F10888EE880E83E0981EA11CB11CC114BC
:1017B000D104E104F10419F7DDCFFF90EF90DF9041
:1017C000CF90BF90AF909F908F9008958F929F92EF
:1017D000AF92BF92CF92DF92EF92FF920F931F933F
:1017E000CF93DF936C017B018A0180910C018823E8
:1017F00009F45CC080918001882309F457C080916E
:101800007F0180FF05C08091E00082608093E0004E
:10181000E801B12C8AEFA82E93E0892E2AE3922EBC
:10182000209711F4BB20D9F10E949B0781110AC0B7
:10183000AA94AA20D9F161E070E080E090E00E94D3
:10184000AC0BEECF282F30E0C217D3070CF48C2F4F
:101850009FB7F8948092E9002091E80025FF1DC011
:10186000282F30E0C21BD30BF701815020F04191AB
:101870004093F100FACFE20EF31EBB2019F09092D4
:10188000E8000AC08091E80085FD07C09092E8005A
:10189000BB24B394209709F0B12C9FBFC1CF5D98B2
:1018A00084E6809329021016110644F081E090E04E
:1018B000F6019383828380E090E001C0C801DF914C
:1018C000CF911F910F91FF90EF90DF90CF90BF903D
:1018D000AF909F908F900895CF93DF93CDB7DEB7F1
:1018E00062970FB6F894DEBF0FBECDBF789484B573
:1018F000826084BD84B5816084BD85B5826085BD0C
:1019000085B5816085BD80916E00816080936E0099
:10191000109281008091810082608093810080918B
:10192000810081608093810080918000816080933C
:10193000800080919100826080939100809191005D
:1019400081608093910080919000816080939000ED
:101950008091C10084608093C1008091C100826049
:101960008093C1008091C10081608093C10080910B
:10197000C30081608093C3008091C0008260809327
:10198000C0008091C20081608093C20080917A0083
:10199000846080937A0080917A00826080937A00DC
:1019A00080917A00816080937A0080917A008068CB
:1019B00080937A001092800110927E0110927F0134
:1019C0008091D70081608093D70080EA8093D8000F
:1019D00089B5806189BD89B5826089BD09B400FE81
:1019E000FDCF61E070E080E090E00E94AC0B809160
:1019F000D8008F7C80618093D8008091E000807F48
:101A00008093E0008091E1008E7E8093E1008DE084
:101A10008093E200559A209AEDE3F2E02491EEE102
:101A2000F2E08491882399F090E0880F991FFC01DF
:101A3000E252FF4FA591B491FC01ED5FFD4F8591FE
:101A400094918FB7F894EC91E22BEC938FBF61E007
:101A50008DE00E94480B80E8809361001092610045
:101A600085B7806885BF85B7806885BFE0919101A3
:101A7000F091920182E08083E0918D01F0918E01DE
:101A80001082E0918F01F09190018FEC8083109291
:101A90009901E0919501F091960186E08083E091B3
:101AA0009301F0919401808180618083E0919301A2
:101AB000F0919401808188608083E0919301F0919E
:101AC0009401808180688083E0919301F09194017A
:101AD00080818F7D80839FE088E10FB6F894A89580
:101AE000809360000FBE9093600084E1E0E6F1E037
:101AF000DF01982F1D929A95E9F7809361018091FB
:101B0000D8008F7E8093D8008091D7008160809329
:101B1000D70084E082BF81E080935D018091D8008E
:101B20008E7F8093D8001092E2001092DA0010921B
:101B3000E1008091D8008F778093D8008091D80001
:101B400080688093D8008091D8008F7D8093D800E2
:101B500019BC10925E0110925C0110925B01109210
:101B60005A01ECE8F1E0E491E09300018091E0009B
:101B70008B7F8093E0008091D80081608093D800B3
:101B80002091000130E088E090E040E08217930768
:101B900020F44F5F880F991FF9CF4295407F426034
:101BA00060E080E00E94FE028091E1008E7F8093E1
:101BB000E1008091E20081608093E2008091E20088
:101BC00088608093E2008091E0008E7F8093E00047
:101BD0008091D80080618093D800789400E010E86C
:101BE000A89561E08DE00E94480B68EC70E080E011
:101BF00090E00E94AC0B60E08DE00E94480B68EC26
:101C000070E080E090E00E94AC0B909174018091B4
:101C10006301992311F0806201C08F7D809363017D
:101C200081E089278093740181E891E00E94FD01A1
:101C3000892B71F181E891E00E94DB01D82E898324
:101C40001A82E0902202F0902302AFEFEA1AFA0A19
:101C5000B7018EE192E00E94E405882399F020917B
:101C60001E0230911F028091220290912302BE0138
:101C70006F5F7F4F820F931F0E948812F0922302A2
:101C8000E0922202BAE0DB1203C081E080935F01A0
:101C900080915F01882309F42FC110925F01209188
:101CA00022023091230241E050E06EE172E0CE0169
:101CB0000D960E94A50689899A89892B69F0ED8481
:101CC000FE846DE270E0C7010E947412009721F05B
:101CD0009C012E193F0902C02FEF3FEF40E050E07A
:101CE000BE01635F7F4FCE0107960E94A506E9887B
:101CF000FA88E114F10469F0CD84DE846DE270E0CD
:101D0000C6010E947412009721F0AC014C195D09C4
:101D100002C04FEF5FEF4F5F5F4F9701BE01635F00
:101D20007F4FCE0101960E94A50661E08DE00E94E2
:101D3000480B6EE371E0CE0107960E94C50588232B
:101D400079F0109367010093660164E670E080E02B
:101D500090E00E94AC0B1092670110926601B4C033
:101D600060E471E0CE0107960E94C5058111E9CFBC
:101D700062E471E0CE0107960E94C505882379F0E0
:101D8000109369010093680164E670E080E090E0E0
:101D90000E94AC0B109269011092680195C064E436
:101DA00071E0CE0107960E94C5058111E9CF66E476
:101DB00071E0CE0107960E94C505882379F08091D5
:101DC000620184608093620164E670E080E090E0EC
:101DD0000E94AC0B809162018B7F44C069E471E08A
:101DE000CE0107960E94C505882379F08091620193
:101DF00088608093620164E670E080E090E00E9479
:101E0000AC0B80916201877F2DC06CE471E0CE0144
:101E100007960E94C505882379F080916201816050
:101E20008093620164E670E080E090E00E94AC0B79
:101E3000809162018E7F16C06FE471E0CE0107963B
:101E40000E94C505882389F0809162018260809399
:101E5000620164E670E080E090E00E94AC0B80914B
:101E600062018D7F809362012FC08F8198850097DA
:101E700019F00E94061003C060E070E0CB016150D1
:101E8000710979F48091630180628093630164E653
:101E900070E080E090E00E94AC0B809163018F7D48
:101EA00011C06130710581F480916301806180937C
:101EB000630164E670E080E090E00E94AC0B8091EA
:101EC00063018F7E8093630160E08DE00E94480B88
:101ED00040E050E065E471E08EE192E00E947A0615
:101EE00089819A810E9417118F8198850E9417110C
:101EF0008D859E850E94171180915E01843081F549
:101F000081E08093E9008091E80080FF29C00E9471
:101F1000AC02811120C084E1E82EF12C90E6C92E9C
:101F200091E0D92E09C0F60181916F018093F100F3
:101F3000F1E0EF1AF10879F08091E80085FDF3CF28
:101F40008091E8008E778093E8000E94A5030E94AC
:101F5000AC02882389F38091E8008E778093E800B3
:101F60000E94A5030E94A2023BCE80911E02909186
:101F70001F020C941711E7E3F2E01382128288EE3D
:101F800093E0A0E0B0E084839583A683B7832EE13D
:101F900031E0318320832FEF3FEF35872487E1E85D
:101FA000F1E01382128284839583A683B78380E352
:101FB00091E0918380838DEC90E0958784878CEC11
:101FC00090E09787868788EC90E0918B808B89ECF6
:101FD00090E0938B828B8AEC90E0958B848B8EECD7
:101FE00090E0978B868B118E128E138E148EEEE1FD
:101FF000F2E011821082138212821582148240E074
:1020000050E065E471E0CF010C947A061F93FC0167
:1020100099278827BC01E89411911032E9F319300F
:1020200010F01E30C8F31B3251F01D3249F4689491
:1020300006C00E942D10610F711D811D911D11910F
:1020400010531A30B0F33EF49095809570956195D9
:102050007F4F8F4F9F4F1F910895592F482F372F34
:10206000262F660F771F881F991F660F771F881FFF
:10207000991F620F731F841F951F660F771F881F9C
:10208000991F08952F923F924F925F926F927F9285
:102090008F929F92AF92BF92CF92DF92EF92FF9278
:1020A0000F931F93CF93DF93CDB7DEB7CA1BDB0B24
:1020B0000FB6F894DEBF0FBECDBF09942A883988C9
:1020C00048885F846E847D848C849B84AA84B984D0
:1020D000C884DF80EE80FD800C811B81AA81B981DC
:1020E000CE0FD11D0FB6F894DEBF0FBECDBFED01F0
:1020F0000895EE0FFF1F0590F491E02D09940F93C2
:102100001F93CF93DF938230910510F482E090E02B
:10211000E0918902F0918A0220E030E0A0E0B0E096
:10212000309719F140815181028113814817590775
:10213000C8F08417950769F4109731F012960C9344
:10214000129713961C9327C00093890210938A025A
:1021500022C02115310519F04217530718F49A01CE
:10216000BD01EF01DF01F801DBCF21153105F9F0E9
:10217000281B390B2430310580F48A819B8161153D
:10218000710521F0FB019383828304C090938A023E
:1021900080938902FE01329644C0FE01E20FF31FD4
:1021A0008193919322503109398328833AC0209139
:1021B000870230918802232B41F420910F01309146
:1021C0001001309388022093870220910D013091F5
:1021D0000E012115310541F42DB73EB74091110193
:1021E00050911201241B350BE0918702F091880277
:1021F000E217F307A0F42E1B3F0B2817390778F0DE
:10220000AC014E5F5F4F2417350748F04E0F5F1F3C
:1022100050938802409387028193919302C0E0E03B
:10222000F0E0CF01DF91CF911F910F910895CF93EF
:10223000DF93009709F481C0FC0132971382128268
:10224000A0918902B0918A02109781F42081318196
:10225000820F931F20918702309188022817390737
:1022600051F5F0938802E093870267C0ED0120E00A
:1022700030E0CE17DF0740F44A815B819E014115B3
:102280005105F1F0EA01F5CFD383C283408151813A
:10229000840F951FC817D90759F488819981840F35
:1022A000951F0296918380838A819B819383828389
:1022B0002115310529F4F0938A02E09389023DC08B
:1022C000E901FB83EA8349915991C40FD51FEC17AB
:1022D000FD0761F480819181840F951F0296E901C9
:1022E00099838883828193819B838A83E0E0F0E0F5
:1022F00012968D919C911397009719F0FD01DC01C6
:10230000F7CF8D919C9111979D012E5F3F4F820FCA
:10231000931F20918702309188022817390769F4AA
:10232000309729F410928A021092890202C0138217
:102330001282B0938802A0938702DF91CF91089513
:10234000A0E0B0E0E6EAF1E10C944610EC01009761
:1023500021F4CB010E947F10B4C0FC01E60FF71FEF
:102360009C0122503109E217F30708F4A8C0D901F3
:102370000D911C91119706171707B0F00530110544
:1023800008F49BC0C80104978617970708F495C006
:1023900002501109061B170B019311936D937C9347
:1023A000CF010E94171189C05B01A01AB10A4C012C
:1023B000800E911EA0918902B0918A02612C712C2D
:1023C000E12CF12C109709F446C08D919C91119746
:1023D000A815B905B1F56C0142E0C40ED11CCA14B0
:1023E000DB0478F14C018A189B08640142E0C40EBA
:1023F000D11C1296BC9012971396AC91B5E0CB16F7
:10240000D10440F0B282A38391828082D9016D937E
:102410007C9309C00E5F1F4F800F911FF9019183BC
:102420008083EB2DFA2FE114F10431F0D7011396DC
:10243000FC93EE93129741C0F0938A02E0938902D5
:102440003CC06816790608F43C017D0112960D9097
:10245000BC91A02DB7CF80918702909188028816F9
:102460009906E1F466167706C8F480910D01909103
:102470000E01009741F48DB79EB740911101509124
:102480001201841B950BE817F907C8F4F093880232
:10249000E0938702F901718360830FC0CB010E9432
:1024A0007F107C01009759F0A801BE010E946B12B9
:1024B000CE010E941711C70104C0CE0102C080E006
:1024C00090E0CDB7DEB7EEE00C94621081E090E0D2
:1024D000F8940C948F12FB01DC0102C001900D9264
:1024E00041505040D8F70895FC018191861721F0A2
:1024F0008823D9F7992708953197CF010895FB01D3
:10250000DC018D91019080190110D9F3990B089588
:10251000FB01DC0101900D920020E1F7089511E02C
:10252000C3E7D1E004C0FE010E9479102196C437B0
:08253000D107C9F7F894FFCFB1
:1025380008FFFFFFFF00E100000000000000008B23
:1025480002800000C1808100000000000000C00778
:10255800E60BE107D6072708E50703080000000097
:1025680034029E01CC018002FD01DB01EF014C0029
:102578005200550044004C48005248005548004459
:02258800480009
:00000001FF
