:100000000C943E010C9466010C9466010C946601FC
:100010000C9466010C9466010C9466010C946601C4
:100020000C9466010C9466010C94A9070C94770A51
:100030000C9466010C9466010C9466010C946601A4
:100040000C9466010C9466010C9466010C94660194
:100050000C9466010C9466010C9466010C942E02BB
:100060000C9466010C941E050C94F8040C94660123
:100070000C9466010C9466010C9466010C94660164
:100080000C9466010C9466010C9466010C94660154
:100090000C9466010C9466010C9466010C94660144
:1000A0000C9466010C9466010C9466019301960110
:1000B000850189018D01B701B701B7019A019E0140
:1000C000A201A801AC01B701B2010D062F06580725
:1000D0002F06580778069B0658071D072C070000B7
:1000E0000000240027002A002D003000090299009A
:1000F000040100A0FA0904000002FF5D01001121C3
:100100000001012581140000000013010800000710
:1001100005810320000407050103200008090401EC
:100120000004FF5D03001B21000101018240010268
:1001300020168300000000000016030000000000ED
:1001400000070582032000020705020320000407C0
:100150000583032000400705030320001009040263
:100160000001FF5D02000921000101228407000750
:100170000584032000100904030000FFFD1304069A
:10018000410001010312010002FFFFFF405E048EE7
:100190000214010102030100000000250028002BC9
:1001A000002E0031000404040404030405020202CA
:1001B0000204030202020206060606060604040200
:1001C0000202040404080201104080401020408014
:1001D000408008020401804020100201108010209D
:1001E0004040200000000200090F0000030401004D
:1001F0000C000000000000000000000000000000F3
:100200000000080B000202020100090400000102C4
:10021000020000052400100105240101010424024C
:1002200006052406000107058103100040090401AA
:1002300000020A00000007050202400000070583D3
:10024000024000000403090412010002EF02014011
:100250004123368000010102030141726475696E19
:100260006F204C4C430041726475696E6F204C6581
:100270006F6E6172646F0000E810E21011241FBEFF
:10028000CFEFDAE0DEBFCDBF22E0ACE5B1E001C0E8
:100290001D92A63AB207E1F711E0A0E0B1E0E2E971
:1002A000F7E202C005900D92AC35B107D9F711E025
:1002B000CDE3D1E004C02197FE010E94A611CC330A
:1002C000D107C9F70E94B50C0C94BC130C94000024
:1002D000362F90E0FC01ED51FE4F4491FC01EC53B0
:1002E000FE4F2491FC01EB55FE4F8491882309F4C5
:1002F00052C04423E1F150E0FA013197EF30F105AB
:10030000B0F5EA5AFF4F0C94A611909180009F77A8
:1003100007C0909180009F7D03C090918000977FDF
:100320009093800024C094B59F7702C094B59F7DC0
:1003300094BD1DC0909190009F7707C09091900050
:100340009F7D03C090919000977F909390000FC085
:100350009091C0009F7703C09091C0009F7D9093C3
:10036000C00005C09091C200977F9093C200E82F13
:10037000F0E0EE0FFF1FE956FE4FA591B4919FB735
:10038000F894311104C08C912095282302C0EC917F
:100390002E2B2C939FBF08950E94931340919B0195
:1003A00050919C012091990130919A014217530775
:1003B000B4F49091E8009570E1F39091E80092FD1B
:1003C00019C08093F10080919B0190919C0101964E
:1003D0008F739927892B19F48EEF8093E800809111
:1003E0009B0190919C01019690939C0180939B01AD
:1003F00081E0089580E00895615030F02091F1008F
:10040000FC0120830196F8CF289884E680939F0111
:1004100008953FB7F89480918D0190918E01A0913D
:100420008F01B091900126B5A89B05C02F3F19F010
:100430000196A11DB11D3FBFBA2FA92F982F882764
:10044000820F911DA11DB11DBC01CD0142E0660FBF
:10045000771F881F991F4A95D1F708951F920F9211
:100460000FB60F9211242F933F938F939F93AF93C7
:10047000BF938091890190918A01A0918B01B091E5
:100480008C013091880123E0230F2D3720F4019651
:10049000A11DB11D05C026E8230F0296A11DB11DA7
:1004A000209388018093890190938A01A0938B0106
:1004B000B0938C0180918D0190918E01A0918F015C
:1004C000B09190010196A11DB11D80938D01909373
:1004D0008E01A0938F01B0939001BF91AF919F9136
:1004E0008F913F912F910F900FBE0F901F901895F5
:1004F000CF92DF92EF92FF920F931F93CF93DF93F0
:100500006C017A018B01C0E0D0E0CE15DF0581F0EF
:10051000D8016D918D01D601ED91FC910190F08192
:10052000E02DC6010995892B11F02196EECF7E01B1
:10053000C701DF91CF911F910F91FF90EF90DF9056
:10054000CF900895089580E090E00895FC01538DC8
:10055000448D252F30E0842F90E0821B930B54179D
:1005600010F0CF96089501970895FC01918D828D2A
:10057000981761F0828DDF01A80FB11D5D968C91F7
:10058000928D9F5F9F73928F90E008958FEF9FEF02
:100590000895FC01918D828D981731F0828DE80FBE
:1005A000F11D858D90E008958FEF9FEF0895FC0178
:1005B000918D228D892F90E0805C9F4F821B910945
:1005C0008F739927089581EA91E00E94D70221E074
:1005D000892B09F420E0822F0895FC01848DDF012E
:1005E000A80FB11DA35ABF4F2C91848D90E00196A6
:1005F0008F739927848FA689B7892C93A089B18995
:100600008C9182748C93938D848D981306C002888C
:10061000F389E02D80818F7D80830895EF92FF9292
:100620000F931F93CF93DF93EC0181E0888F9B8D15
:100630008C8D981305C0E889F989808185FD26C0D5
:10064000F62E0B8D10E00F5F1F4F0F731127E02E5A
:100650008C8DE8120CC00FB607FCFACFE889F98937
:10066000808185FFF5CFCE010E94ED02F1CF8B8D09
:10067000FE01E80FF11DE35AFF4FF0829FB7F89497
:100680000B8FEA89FB898081806209C09FB7F8944B
:10069000EE89FF896083E889F9898081827480838B
:1006A0009FBF81E090E0DF91CF911F910F91FF906C
:1006B000EF900895CF93DF93EC01888D8823C9F0E4
:1006C000EA89FB89808185FD05C0A889B9898C915B
:1006D00086FD0FC00FB607FCF5CF808185FFF2CFF6
:1006E000A889B9898C9185FFEDCFCE010E94ED02DA
:1006F000E7CFDF91CF91089580E090E0892B29F03A
:100700000E94E30281110C940000089580919101F0
:1007100087FF11C08091E80082FD05C080915F01D4
:100720008111F8CF11C08091E8008B770BC08091C8
:100730005F01882349F08091E80080FFF8CF809125
:10074000E8008E778093E80008952091970130911A
:1007500098012617370748F06115710539F4209183
:10076000E8002E772093E80001C0B901382F492F07
:1007700020E06115710509F441C080915F01882373
:1007800009F44FC0853009F44EC08091E80083FD24
:100790004CC08091E80082FD3EC08091E80080FF5F
:1007A000E8CF5091F3002091F200822F90E0952B3A
:1007B000E32FF42F8E1B9F0BAF01480F591F209181
:1007C00000016115710559F0A22FB0E04A175B07CF
:1007D00030F421912093F10061507109EDCF822F07
:1007E00090E021E08417950709F020E08091E8006F
:1007F0008E778093E8003E2F4F2FBBCF2111BDCFC6
:100800000AC080915F01882361F0853061F080919A
:10081000E80083FD0AC08091E80082FFF2CF80E00B
:10082000089582E0089583E0089581E00895FC0131
:1008300024813581232B31F421E061157105A1F06C
:10084000FB0108C0FC01808191816115710531F4C3
:1008500021E0FC018081882339F005C00E94AC139F
:1008600021E0892B09F020E0822F08950F931F9338
:10087000CF93DF93EC0188819981009729F02A8139
:100880003B812617370788F48B016F5F7F4F0E94EB
:10089000CD12009761F0998388831B830A832C8192
:1008A0003D81232B11F4FC01108281E001C080E026
:1008B000DF91CF911F910F910895EF92FF920F93C7
:1008C0001F93CF93DF93EC017B018A01BA010E9451
:1008D00036042881398181110DC02115310519F0A7
:1008E000C9010E944412198218821D821C821B8237
:1008F0001A8206C01D830C83B701C9010E94B5137B
:10090000CE01DF91CF911F910F91FF90EF9008954D
:10091000BF92CF92DF92EF92FF920F931F93CF93EC
:10092000DF937C016B01EA0189012417350720F46C
:100930008D2FE901042F182FD70111961C921E92BA
:1009400013961C921E92129715961C921E92149743
:1009500040E050E063E471E0C7010E945D04F601ED
:1009600084819581C817D907C0F58017910708F4CD
:100970008C01D601ED91FC911197E00FF11FB08031
:1009800010826D917C916C0F7D1F6115710561F076
:10099000FB0101900020E9F73197AF01461B570B8F
:1009A000C7010E945D0413C0F70180819181009707
:1009B00011F00E944412D70111961C921E921596B6
:1009C0001C921E92149713961C921E921297D60197
:1009D000ED91FC91E00FF11FB082C701DF91CF9143
:1009E0001F910F91FF90EF90DF90CF90BF900895EF
:1009F0001F920F920FB60F9211242F933F934F9394
:100A00005F936F937F938F939F93AF93BF93EF9376
:100A1000FF9381EA91E00E94ED02FF91EF91BF9177
:100A2000AF919F918F917F916F915F914F913F9186
:100A30002F910F900FBE0F901F9018951F920F923D
:100A40000FB60F9211242F938F939F93EF93FF93E1
:100A5000E091B101F091B2018081E091B701F09194
:100A6000B80182FD12C090818091BA018F5F8F73AF
:100A70002091BB01821751F0E091BA01F0E0EF55EF
:100A8000FE4F958F8093BA0101C08081FF91EF9155
:100A90009F918F912F910F900FBE0F901F901895DF
:100AA0002091E4003091E50095E64091EC00842F20
:100AB000817040FF23C08091E80080FD1DC08091BF
:100AC0005F01882399F0853099F08091EB0085FDD6
:100AD00011C04091E4005091E5002417350729F337
:100AE000915011F09A01E1CF84E0089582E00895D9
:100AF00083E0089581E0089580E008954091E80042
:100B000042FFDDCF0895982F973068F59093E90064
:100B1000981739F07091EC002091ED005091F000A1
:100B200003C0242F762F50E021FD02C09F5FECCF41
:100B30003091EB003E7F3093EB003091ED003D7F34
:100B40003093ED003091EB0031603093EB00709307
:100B5000EC002093ED005093F0002091EE0027FD73
:100B6000E5CF80E008958F708093E90081E00895DB
:100B70000F931F93CF93DF93CDB7DEB7AA970FB62E
:100B8000F894DEBF0FBECDBF80915F01882309F4CA
:100B9000D5C11091E9001F709091EC00892F8170F0
:100BA00090FD80E8182B1092E9008091E80083FF07
:100BB0008DC1E1E9F1E08091F100819321E0E93913
:100BC000F207C9F7809192018130A1F480919101DF
:100BD000813A81F48091E800877F8093E80064E1A6
:100BE00070E080E691E00E94A5038091E8008B7799
:100BF0008093E8008091E80083FF5AC180919101C1
:100C000090919201492F50E04A30510508F050C1AF
:100C1000FA01EB59FF4F0C94A611803881F082380D
:100C200009F046C1809195018F708093E900809111
:100C3000EB0085FB882780F91092E90006C08091BF
:100C40005C0190915D01911182609091E800977F25
:100C50009093E8008093F1001092F100F9C0282FE2
:100C60002D7F09F025C1882319F0823061F020C161
:100C700080919301813009F01BC1933009F080E02D
:100C800080935D012BC080919301811127C08091D9
:100C900095018F7009F40CC18093E9002091EB005D
:100CA00020FF1CC0933021F48091EB00806214C0BF
:100CB0009091EB0090619093EB0021E030E0A9016E
:100CC00002C0440F551F8A95E2F74093EA00109244
:100CD000EA008091EB0088608093EB001092E900BD
:100CE0008091E800877F8093E8000E948603E0C03F
:100CF0008111DEC0009193010F778091E30080782D
:100D0000802B8093E3008091E800877F8093E80048
:100D10000E9486038091E80080FFFCCF8091E30071
:100D200080688093E300011102C082E001C083E08B
:100D300080935F01BDC08058823008F0B9C08091B7
:100D40009301909194018C3D53E0950779F583E0F0
:100D50008A838AE289834FB7F894DE01139620E0F4
:100D60003EE051E2E32FF0E050935700E49120FF82
:100D700003C0E295EF703F5FEF708E2F90E0EA3096
:100D800010F0C79601C0C0968D939D932F5F2431BC
:100D900049F74FBF8091E800877F8093E8006AE2BF
:100DA00070E0CE0101960E94A50341C0892F9927CA
:100DB0008130910509F48EC0029709F079C089E964
:100DC00090E0ECEEF0E08AC0853089F18091E80097
:100DD00083FD2DC08091E80082FDABC08091E800CA
:100DE00080FF1DC04091F3008091F20090E0942BB1
:100DF0008E1B9F0BBF01680F791F409100012115C9
:100E0000310509F07AC0842F90E041E086179707FA
:100E100009F040E08091E8008E778093E80021158A
:100E2000310509F477C080915F018111CDCF8091A8
:100E3000E8008B778093E8003BC08038C9F580914B
:100E4000E800877F8093E80080915E018093F10045
:100E50008091E8008E7747CF81112AC0809193015D
:100E600090919401992702971CF58091E800877F63
:100E70008093E8008091930180935E010E94860335
:100E800080915E01882371F084E080935F0142E2EB
:100E900061EC81E00E94830542E261EC83E00E9404
:100EA000830506C08091E30087FDEECF81E0EDCFA2
:100EB0008091E80083FF0AC08091E800877F8093DB
:100EC000E8008091EB0080628093EB001F7010932C
:100ED000E90034C082E190E0E5E8F1E02091E8002B
:100EE000277F2093E8002091970130919801821785
:100EF000930708F49C0140E092CFA42FB0E06A175A
:100F00007B0708F080CF44914093F1003196215047
:100F1000310970CF411187CF0CC080915F018823C8
:100F200009F485CF853009F482CF8091E80083FDF4
:100F30007ECF8091E80082FFF0CF79CFAA960FB6DE
:100F4000F894DEBF0FBECDBFDF91CF911F910F91FF
:100F500008951F920F920FB60F9211242F933F9373
:100F60004F935F936F937F938F939F93AF93BF93B1
:100F7000EF93FF938091E10082FF09C08091E2002E
:100F800082FF05C08091E1008B7F8093E10080911A
:100F9000DA0080FF1BC08091D80080FF17C08091CD
:100FA000DA008E7F8093DA008091D90080FF0BC039
:100FB00080E189BD82E189BD09B400FEFDCF81E0F9
:100FC00080935F0103C019BC10925F018091E10022
:100FD00080FF17C08091E20080FF13C08091E20083
:100FE0008E7F8093E2008091E20080618093E20036
:100FF0008091D80080628093D80019BC85E08093EE
:101000005F018091E10084FF2EC08091E20084FFA7
:101010002AC080E189BD82E189BD09B400FEFDCF0F
:101020008091D8008F7D8093D8008091E1008F7EE1
:101030008093E1008091E2008F7E8093E2008091B6
:10104000E20081608093E20080915E01882311F0CC
:1010500084E007C08091E30087FD02C081E001C009
:1010600083E080935F018091E10083FF31C0809134
:10107000E20083FF2DC08091E100877F8093E10033
:1010800082E080935F0110925E018091E1008E7F8B
:101090008093E1008091E2008E7F8093E200809156
:1010A000E20080618093E2002091000130E088E05E
:1010B00090E040E08217930720F44F5F880F991F5C
:1010C000F9CF4295407F426060E080E00E94830556
:1010D000FF91EF91BF91AF919F918F917F916F9110
:1010E0005F914F913F912F910F900FBE0F901F90E6
:1010F00018952091A001211103C08FEF9FEF089553
:101100005FB7F89422E02093E9002091F20030E0EC
:101110001216130614F421E030E0422FFC0184E69D
:10112000415038F0289880939F019091F10091935D
:10113000F7CF2115310521F08091F200882319F0B5
:101140005FBFC90108958BE68093E800F9CF2FB700
:10115000F89483E08093E9009091E800892F8072F1
:1011600095FF04C09091F20080E4891B2FBF089581
:1011700080914A0281110DC082E08093460284E092
:1011800080934702109249021092480281E08093B6
:101190004A0286E492E00895CF93DF931F92CDB781
:1011A000DEB76983DC01ED91FC910280F381E02DD3
:1011B00041E050E0BE016F5F7F4F09950F90DF91D6
:1011C000CF91089583E08093E9008091F200882315
:1011D00019F08AE38093E80008950E94A70890E040
:1011E0000895CF93DF931F92CDB7DEB7FC018485BE
:1011F000958597FD05C02FEF3FEF358724870BC0FE
:10120000CE0101960E947908019719F4898190E036
:1012100002C08FEF9FEF0F90DF91CF9108950F9352
:101220001F93CF93DF931F92CDB7DEB78C01FC01E4
:101230008485958597FF0EC0CE0101960E9479089E
:10124000019719F4898190E002C08FEF9FEFF801B8
:1012500095878487F801848595850F90DF91CF91DC
:101260001F910F910895FC018485958597FD0BC012
:101270009FB7F89482E08093E9008091F2009FBFCD
:1012800090E0019608959FB7F89482E08093E9007A
:101290008091F2009FBF90E00895DF92EF92FF925D
:1012A0000F931F93CF93DF93D82EF92EE42E062FA2
:1012B00010E0C8010196880F0E94CE0183E00E94D1
:1012C000CE01CD2DDF2D0C0F1D1FC017D10789F0CA
:1012D000E7FE03C0FE01849101C088810E94CE0117
:1012E000F82E80E00E94CE018F2121968111EDCF52
:1012F00001C081E0DF91CF911F910F91FF90EF909E
:10130000DF900895DF92EF92FF920F931F93CF9398
:10131000DF93D82E8A017B01E40EF51EEB01CE157A
:10132000DF0571F0D7FE03C0FE01849101C0888102
:101330000E94CE0121968111F2CF8FEF9FEF01C065
:10134000C801DF91CF911F910F91FF90EF90DF9037
:1013500008950F931F93CF93DF931F92CDB7DEB7FE
:1013600082E0898342E450E062E072E080E80E941B
:1013700082090E94B808DC0112960D911C91139706
:101380000115110589F0D801ED91FC910280F381DE
:10139000E02DBE016F5F7F4FC801099597FD04C026
:1013A000F80100851185ECCF89810F90DF91CF91F5
:1013B0001F910F910895CF92DF92EF92FF920E94BA
:1013C00009026B017C010E940902DC01CB018C192E
:1013D0009D09AE09BF09883E9340A105B10598F368
:1013E000FF90EF90DF90CF9008958F929F92AF92F1
:1013F000BF92CF92DF92EF92FF920F931F93CF9302
:10140000DF936C017B018A0180910C01882309F430
:1014100058C08091A001882309F453C080919E0197
:1014200080FF05C08091E00082608093E000E801C9
:10143000B12C8AEFA82E93E0892E2AE3922E2097D2
:1014400011F4BB20B9F10E94A708811106C0AA942B
:10145000AA20B9F10E94DB09F2CF282F30E0C21791
:10146000D3070CF48C2F9FB7F8948092E900209159
:10147000E80025FF1DC0282F30E0C21BD30BF70169
:10148000815020F041914093F100FACFE20EF31E1B
:10149000BB2019F09092E8000AC08091E80085FD19
:1014A00007C09092E800BB24B394209709F0B12CB8
:1014B0009FBFC5CF5D9884E6809345021016110644
:1014C00044F081E090E0F6019383828380E090E035
:1014D00001C0C801DF91CF911F910F91FF90EF9054
:1014E000DF90CF90BF90AF909F908F9008951F9204
:1014F0000F920FB60F921124CF92DF92EF92FF92CC
:101500000F931F932F933F934F935F936F937F930B
:101510008F939F93AF93BF93EF93FF93CF93DF93FB
:10152000CDB7DEB76C97DEBFCDBF1092E9008091DA
:10153000E80083FFFBC168E0CE0145960E94FC01F4
:1015400082EF8093E8008D8987FF05C09091E800C5
:1015500090FFFCCF03C09EEF9093E800982F907609
:1015600009F0C6C09E894F89588D2F89F88C91113A
:101570000CC0803829F480919D018093F10002C055
:101580001092F1001092F10045C1913051F4811197
:1015900041C14130510509F03DC180919D018D7FD0
:1015A0000BC0933061F4811135C14130510509F010
:1015B00031C180919D01826080939D012BC1953046
:1015C00049F48091E80080FFFCCF822F80688093EF
:1015D000E30020C1963009F05EC00B8D1C8D22E027
:1015E0001092E90010929C0110929B01F21232C0FD
:1015F00010929A01109299010E94A90999E0BE01E6
:101600006F5F7F4FDB01E92F1D92EA95E9F7998320
:10161000FA8291E09E8390EA98879AEF99872091C9
:101620009B0130919C01275F3F4F3C832B838D832F
:101630001092E90010929C0110929B0110939A0164
:101640000093990149E050E080E00E9482090E94E5
:10165000A909E0C010939A01009399010E94B8086B
:10166000DC0112960D911C9113970115110509F4D7
:10167000BBC0D801ED91FC910480F581E02DBE0145
:101680006B5E7F4FC8010995009709F0C7C0F8014C
:1016900000851185EACF973009F445C1983021F4CF
:1016A00081E08093F100B6C0993009F0B3C0837037
:1016B00009F039C1E4E1F1E081E031E096E3208115
:1016C000211109C08EE78093EA001092EA008F8909
:1016D0008093A0019FC08093E9003093EB0021919B
:1016E0002093EC009093ED008F5F873041F7EACFB5
:1016F0008B8D9C8D1092E90010929C0110929B01A1
:1017000090939A0180939901898D811153C08E899C
:101710009D89913A49F4813209F005C147E050E0D2
:1017200065E071E080E0BBC0913209F0FCC083321B
:1017300069F48F89988DA0E0B0E0809301019093C7
:101740000201A0930301B093040164C0803269F4E4
:101750008091E80082FFFCCF67E085E091E00E9485
:10176000FC018BEF8093E80055C0823209F052C033
:101770008F8980930C01EEEFFFE7859194918B3F69
:101780009C4D19F0E0E0F8E002C0EEEFFAE0809145
:10179000050190910601A0910701B0910801803BDD
:1017A0009440A105B10509F09EC080910C0180FF15
:1017B00079C099C00E94B808FC010281138101150B
:1017C000110509F4B0C0D801ED91FC910190F081B0
:1017D000E02DBE016B5E7F4FC801099581111AC0D3
:1017E000F80100851185EBCFF1E0FF1609F44EC03A
:1017F000F3E0FF1298C08F89882309F44AC0823031
:1018000089F440E860E186E692E00E944D09882371
:1018100009F489C08EEF8093E80088C01816190675
:10182000CCF381C0813029F440E86BE08AE592E096
:10183000ECCF833009F077C00E94B808DC01129623
:10184000ED90FC9013978E010F5F1F4F6801E1141C
:10185000F10479F0D701ED91FC910680F781E02D3C
:10186000B801C7010995080F111DF701E084F18443
:10187000EECFD8011C92F60101900020E9F73197D4
:10188000BF016C197D0940E0C601BFCF68E472E07A
:1018900002C064E472E0FB01449150E080E80E94E1
:1018A0008209B8CFEE3F2AE0F20751F080819181A2
:1018B0008737A7E79A0721F09093FF0A8093FE0AE3
:1018C00087E797E79183808380916000809344024B
:1018D0009BE088E10FB6F894A895809360000FBE56
:1018E0009093600097CF808191818737974709F067
:1018F00091CFA8958091600088618093600080916D
:10190000440280936000EE3FBAE0FB0739F080911B
:10191000FE0A9091FF0A918380837CCF1092FF0A88
:101920001092FE0A77CF81E28093EB006C960FB69F
:10193000F894DEBF0FBECDBFDF91CF91FF91EF9145
:10194000BF91AF919F918F917F916F915F914F91D7
:101950003F912F911F910F91FF90EF90DF90CF90CB
:101960000F900FBE0F901F901895CF93DF93CDB7B8
:10197000DEB762970FB6F894DEBF0FBECDBF789486
:1019800084B5826084BD84B5816084BD85B5826084
:1019900085BD85B5816085BD80916E008160809335
:1019A0006E0010928100809181008260809381009E
:1019B00080918100816080938100809180008160AE
:1019C000809380008091910082608093910080914B
:1019D000910081608093910080919000816080935C
:1019E00090008091C10084608093C1008091C1000B
:1019F00082608093C1008091C10081608093C100AA
:101A00008091C30081608093C3008091C000826098
:101A10008093C0008091C20081608093C200809159
:101A20007A00846080937A0080917A00826080934B
:101A30007A0080917A00816080937A0080917A00A8
:101A4000806880937A001092A00110929D011092FC
:101A50009E018091D70081608093D70080EA8093B7
:101A6000D80089B5806189BD89B5826089BD09B416
:101A700000FEFDCF0E94DB098091D8008F7C806141
:101A80008093D8008091E000807F8093E000809177
:101A9000E1008E7E8093E1008DE08093E200559A14
:101AA000209AE1EDF1E02491E2EBF1E084918823CA
:101AB00099F090E0880F991FFC01E252FF4FA59129
:101AC000B491FC01E956FE4F859194918FB7F8943B
:101AD000EC91E22BEC938FBF60E08DE00E946801F7
:101AE00080E8809361001092610085B7806885BFAF
:101AF00085B7806885BFE091B101F091B20182E0C5
:101B00008083E091AD01F091AE011082E091AF01D0
:101B1000F091B0018FEC80831092B901E091B50192
:101B2000F091B60186E08083E091B301F091B401B9
:101B3000808180618083E091B301F091B401808164
:101B400088608083E091B301F091B4018081806866
:101B50008083E091B301F091B40180818F7D808317
:101B60009FE088E10FB6F894A895809360000FBEBF
:101B70009093600084E1E0E6F1E0DF01982F1D9290
:101B80009A95E9F7809361018091D8008F7E8093C8
:101B9000D8008091D70081608093D70084E082BF15
:101BA00081E0809374018091D8008E7F8093D8006B
:101BB0001092E2001092DA001092E1008091D800B9
:101BC0008F778093D8008091D80080688093D80068
:101BD0008091D8008F7D8093D80019BC10925F014E
:101BE00010925E0110925D0110925C01ECE8F1E050
:101BF000E491E09300018091E0008B7F8093E0000E
:101C00008091D80081608093D8002091000130E05D
:101C100088E090E040E08217930720F44F5F880F40
:101C2000991FF9CF4295407F426060E080E00E94BA
:101C300083058091E1008E7F8093E1008091E20036
:101C400081608093E2008091E20088608093E200EE
:101C50008091E0008E7F8093E0008091D8008061C9
:101C60008093D80078948FE78093830180938401D8
:101C70008093850180938601EE24E39455245A9441
:101C80002FE7F22EAA24A394BA2C88248A944EEF2C
:101C9000942EA89581EA91E00E94D702892B61F1E8
:101CA00081EA91E00E94B502182F89831A82C090C0
:101CB0004202D0904302AFEFCA1ADA0AB6018EE3AD
:101CC00092E00E943604882399F020913E023091E0
:101CD0003F028091420290914302BE016F5F7F4FAD
:101CE000820F931F0E94B513D0924302C09242020A
:101CF0001A3011F4E092870180918701882309F45A
:101D000052C110928701209142023091430241E07A
:101D100050E06EE372E0CE010D960E94880489893E
:101D20009A89892B69F0CD84DE846DE270E0C6016A
:101D30000E94A113009721F09C012C193D0902C0BB
:101D40002FEF3FEF40E050E0BE01635F7F4FCE01D9
:101D500007960E948804C988DA88C114D10469F002
:101D60006D847E846DE270E0C3010E94A113009730
:101D700021F0AC014619570902C04FEF5FEF4F5FEA
:101D80005F4F9601BE01635F7F4FCE0101960E94B7
:101D9000880489819A81009721F00E943311062FCF
:101DA00001C000E011E0013009F410E0612F8DE086
:101DB0000E9468016EE371E0CE0107960E9417044D
:101DC000882341F0013019F010928601D8C0F092BA
:101DD0008601D5C06EE471E0CE0107960E9417041B
:101DE000882329F0013099F350928601C8C060E43D
:101DF00071E0CE0107960E941704882341F001305C
:101E000019F010928501BBC0F0928501B8C062E460
:101E100071E0CE0107960E941704882329F0013053
:101E200099F350928501ABC064E471E0CE0107964E
:101E30000E941704882341F0013019F010928401A8
:101E40009EC0F09284019BC067E471E0CE010796CA
:101E50000E941704882329F0013099F350928401DD
:101E60008EC06AE471E0CE0107960E9417048823B1
:101E700041F0013019F01092830181C0F09283018A
:101E80007EC06DE471E0CE0107960E94170488239E
:101E900029F0013099F35092830171C060E571E03F
:101EA000CE0107960E941704882319F0109382012F
:101EB00066C063E571E0CE0107960E94170488238F
:101EC00019F0109381015BC066E571E0CE010796C1
:101ED0000E941704882319F01093800150C069E50F
:101EE00071E0CE0107960E941704882319F0109321
:101EF0007F0145C08F819885009719F00E943311AA
:101F000003C060E070E0CB016150710919F41093D7
:101F10007E0135C06130710519F410937D012FC029
:101F20006230710519F410937C0129C0633071058A
:101F300019F410937B0123C06430710519F41093D8
:101F40007A011DC06530710519F41093790117C02D
:101F50006630710519F41093780111C0673071056E
:101F600019F4109377010BC06830710519F41093C0
:101F7000760105C06930710511F41093750140E0D8
:101F800050E063E471E08EE392E00E945D04898199
:101F90009A810E9444128F8198850E9444128D85F7
:101FA0009E850E9444129091800180916201992344
:101FB00011F0816001C08E7F8093620190917F015A
:101FC00080916201992311F0826001C08D7F80931E
:101FD00062019091820180916201992311F08460E5
:101FE00001C08B7F80936201909181018091620199
:101FF000992311F0886001C0877F8093620120914E
:102000007A0180916201222311F0806101C08F7EEC
:10201000809362019091790180916201992311F07E
:10202000806201C08F7D8093620130917601809142
:102030006201332311F0806401C08F7B80936201C1
:102040003091750180916201332311F0806801C0E5
:102050008F778093620130917E01809163013323F9
:1020600011F0806101C08F7E8093630130917D010A
:1020700080916301332311F0806201C08F7D8093D2
:10208000630130917C0180916301332311F08064FE
:1020900001C08F7B8093630130917B01809163014C
:1020A000332311F0806801C08F77809363013091F2
:1020B000780180916301332311F0816001C08E7F2C
:1020C000809363013091770180916301332311F094
:1020D000826001C08D7F8093630180916301222320
:1020E00021F0992311F0846001C08B7F80936301FC
:1020F000209186012A9DC0012B9D900D112490589E
:10210000909367018093660120918501289DC0010D
:10211000299D900D112481509048909369018093DE
:102120006801209184012A9DC0012B9D900D1124EE
:10213000905890936B0180936A0120918301289DB0
:10214000C001299D900D11248150904890936D01FC
:1021500080936C0180915F01843079F5E092E90011
:102160008091E80080FF29C00E945005811120C0A5
:1021700084E1C82ED12C90E6692E91E0792E09C019
:10218000F30181913F018093F100F1E0CF1AD10872
:1021900079F08091E80085FDF3CF8091E8008E779B
:1021A0008093E8000E94B8050E945005882389F3B7
:1021B0008091E8008E778093E8000E94B8050E9425
:1021C0007C0367CD80913E0290913F020C944412B3
:1021D000E2E5F2E01382128288EE93E0A0E0B0E044
:1021E00084839583A683B7832EE131E031832083F6
:1021F0002FEF3FEF35872487E1EAF1E01382128267
:1022000084839583A683B78380E391E09183808361
:102210008DEC90E0958784878CEC90E0978786879B
:1022200088EC90E0918B808B89EC90E0938B828B93
:102230008AEC90E0958B848B8EEC90E0978B868B6C
:10224000118E128E138E148EEEE3F2E01182108244
:10225000138212821582148240E050E063E471E040
:10226000CF010C945D041F93FC0199278827BC01C2
:10227000E89411911032E9F3193010F01E30C8F3D0
:102280001B3251F01D3249F4689406C00E945A1165
:10229000610F711D811D911D119110531A30B0F302
:1022A0003EF490958095709561957F4F8F4F9F4F2D
:1022B0001F910895592F482F372F262F660F771F0C
:1022C000881F991F660F771F881F991F620F731F42
:1022D000841F951F660F771F881F991F08952F92DF
:1022E0003F924F925F926F927F928F929F92AF92A6
:1022F000BF92CF92DF92EF92FF920F931F93CF93F3
:10230000DF93CDB7DEB7CA1BDB0B0FB6F894DEBF89
:102310000FBECDBF09942A88398848885F846E84AF
:102320007D848C849B84AA84B984C884DF80EE80F9
:10233000FD800C811B81AA81B981CE0FD11D0FB602
:10234000F894DEBF0FBECDBFED010895EE0FFF1F65
:102350000590F491E02D09940F931F93CF93DF9391
:102360008230910510F482E090E0E091A402F091B7
:10237000A50220E030E0A0E0B0E0309719F1408104
:1023800051810281138148175907C8F084179507B6
:1023900069F4109731F012960C93129713961C93D0
:1023A00027C00093A4021093A50222C02115310575
:1023B00019F04217530718F49A01BD01EF01DF012C
:1023C000F801DBCF21153105F9F0281B390B24303A
:1023D000310580F48A819B816115710521F0FB0133
:1023E0009383828304C09093A5028093A402FE018C
:1023F000329644C0FE01E20FF31F81939193225065
:102400003109398328833AC02091A2023091A30276
:10241000232B41F420910F01309110013093A3023E
:102420002093A20220910D0130910E01211531055A
:1024300041F42DB73EB74091110150911201241B78
:10244000350BE091A202F091A302E217F307A0F48A
:102450002E1B3F0B2817390778F0AC014E5F5F4FFA
:102460002417350748F04E0F5F1F5093A302409387
:10247000A2028193919302C0E0E0F0E0CF01DF91EE
:10248000CF911F910F910895CF93DF93009709F497
:1024900081C0FC01329713821282A091A402B091F4
:1024A000A502109781F420813181820F931F209122
:1024B000A2023091A3022817390751F5F093A30225
:1024C000E093A20267C0ED0120E030E0CE17DF0705
:1024D00040F44A815B819E0141155105F1F0EA010A
:1024E000F5CFD383C28340815181840F951FC817D4
:1024F000D90759F488819981840F951F0296918399
:1025000080838A819B81938382832115310529F4FD
:10251000F093A502E093A4023DC0E901FB83EA83A6
:1025200049915991C40FD51FEC17FD0761F48081C3
:102530009181840F951F0296E90199838883828196
:1025400093819B838A83E0E0F0E012968D919C91C9
:102550001397009719F0FD01DC01F7CF8D919C9145
:1025600011979D012E5F3F4F820F931F2091A20272
:102570003091A3022817390769F4309729F4109293
:10258000A5021092A40202C013821282B093A30289
:10259000A093A202DF91CF910895A0E0B0E0E3ED17
:1025A000F2E10C947311EC01009721F4CB010E942D
:1025B000AC11B4C0FC01E60FF71F9C012250310999
:1025C000E217F30708F4A8C0D9010D911C911197E7
:1025D00006171707B0F00530110508F49BC0C801B5
:1025E00004978617970708F495C002501109061B37
:1025F000170B019311936D937C93CF010E944412AA
:1026000089C05B01A01AB10A4C01800E911EA091F5
:10261000A402B091A502612C712CE12CF12C109731
:1026200009F446C08D919C911197A815B905B1F593
:102630006C0142E0C40ED11CCA14DB0478F14C01D9
:102640008A189B08640142E0C40ED11C1296BC900B
:1026500012971396AC91B5E0CB16D10440F0B2823C
:10266000A38391828082D9016D937C9309C00E5F10
:102670001F4F800F911FF90191838083EB2DFA2F5B
:10268000E114F10431F0D7011396FC93EE93129705
:1026900041C0F093A502E093A4023CC068167906FD
:1026A00008F43C017D0112960D90BC91A02DB7CF8E
:1026B0008091A2029091A30288169906E1F4661611
:1026C0007706C8F480910D0190910E01009741F4B6
:1026D0008DB79EB74091110150911201841B950B4B
:1026E000E817F907C8F4F093A302E093A202F901F6
:1026F000718360830FC0CB010E94AC117C010097F5
:1027000059F0A801BE010E949813CE010E94441204
:10271000C70104C0CE0102C080E090E0CDB7DEB7B3
:10272000EEE00C948F1181E090E0F8940C94BC13CF
:10273000FB01DC0102C001900D9241505040D8F7DE
:102740000895FC018191861721F08823D9F79927F4
:1027500008953197CF010895FB01DC018D9101901F
:1027600080190110D9F3990B0895FB01DC01019048
:102770000D920020E1F7089511E0CDE3D1E004C00F
:10278000FE010E94A6112196CE33D107C9F7F89415
:02279000FFCF79
:1027920008FFFFFFFF00E10000000000000000A6AC
:1027A20002800000C1808100000000000000CC080F
:1027B200F509ED08E2083309F1080F0900000000ED
:1027C2000E037802A6025A03D702B502C9024C00D0
:1027D200550044004C5200525200555200445200DF
:0C27E2004C480052480055480044480094
:2070000055C000006EC000006CC000006AC0000068C0000066C0000064C0000062C0000043
:2070200060C000005EC00000F2C400005AC0000058C0000056C0000054C0000052C00000EE
:2070400050C0000078C000004CC000004AC0000048C0000046C0000044C0000042C00000BE
:2070600040C000003EC000003CC000003AC0000038C0000036C0000034C0000032C0000048
:2070800030C000002EC000002CC000002AC0000028C0000026C0000024C0000022C00000A8
:2070A00020C000001EC000001CC0000011241FBECFEFDAE0DEBFCDBF11E0A0E0B1E0E2E3BC
:2070C000FFE702C005900D92A83AB107D9F711E0A8EAB1E001C01D92AE3BB107E1F78FD30B
:2070E00026C78ECFF89410926F0010928100109285001092840081E085BF15BE47985D9AEB
:20710000289A0C94000008952091B2013091B3012F5F3F4F3093B3012093B201932F37FFA6
:2071200003C08EEF831B982F990F921710F447980895479A08951F920F920FB60F9211246E
:207140002F938F939F93EF93FF9310928500109284008091A8019091A901009741F00197D3
:207160009093A9018093A801892B09F45D9A8091AA019091AB01009741F001979093AB0126
:207180008093AA01892B09F4289AE0E0F0E0859194918F5F9F4F49F08091AC019091AD0151
:2071A00001969093AD018093AC01FF91EF919F918F912F910F900FBE0F901F90189584E0BC
:2071C0008093E9000DC08091E8008B778093E80003C08EB3882351F08091E80082FFF9CFBE
:2071E0008091E80085FFEFCF8091F1000895982F83E08093E9008091E80085FD0DC0809136
:20720000E8008E778093E80003C08EB3882369F08091E80080FFF9CF9093F1005D9884E6CB
:2072200090E09093A9018093A80108954F925F926F927F928F929F92AF92BF92CF92DF921E
:20724000EF92FF920F931F93CF93DF9384E08093E9008091E80082FF57C2289884E690E067
:207260009093AB018093AA01AADF182F853481F48CE49DE19093AD018093AC0107B600FC4B
:20728000FDCFF999FECF81E180935700E89503C0843519F494DF8DE00DC28C34E1F38035F9
:2072A000D1F3843721F484E4A2DF80E003C2813611F489E5FFC18134B1F481DF182F7FDFE3
:2072C00090E0880F991FAA2797FDA095BA2F312F330F20E0442737FD4095542F822B932B68
:2072E000A42BB52BB8C1803711F483E5E3C1833549F4C0E0D1E089917ADF21E0C730D20714
:20730000D1F7D9C1863521F481E371DF80E3D2C1833731F487E86BDF85E969DF8EE1CAC149
:207320008536B9F4E0E0F0E093E085E090935700E89507B600FCFDCF80935700E89507B65D
:2073400000FCFDCFE058FF4FA0E7E030FA0771F7A2CF823739F4E1E0F0E089E08093570024
:207360008491A8C1863439F4E0E0F0E089E08093570084919FC18E3439F4E3E0F0E089E0E5
:2073800080935700849196C1813539F4E2E0F0E089E08093570084918DC1823631F489E521
:2073A00026DF80E024DF80E885C1823419F0873609F0E5C01092AD011092AC0100DF082FE8
:2073C000FEDEF82EFCDE682E8554823008F071C1902F80E0CF2DD0E0C82BD92B10926F00B3
:2073E000173609F04BC081E180935700E895DD24CC24C3943FC0E090AE01F090AF010091CC
:20740000B0011091B101B6E46B16D9F4ED2DF0E0EE29FF29E4918E2FEADEDD2081F082E08D
:2074200090E0A0E0B0E0E80EF91E0A1F1B1FE092AE01F092AF010093B0011093B101DC2470
:2074400018C0D801C701B695A7959795879559D5CEDE82E090E0A0E0B0E0E80EF91E0A1FF2
:207460001B1FE092AE01F092AF010093B0011093B1012197209709F0BECF7DC08090AE01F5
:207480009090AF01A090B001B090B10196E4691609F05DC083E0F40180935700E89507B63E
:2074A00000FCFDCF54C0F6E46F1661F5772031F1E090AE01F090AF010091B0011091B1019E
:2074C0007EDED82ECC24852D90E08C299D29F7010C0140925700E895112482E090E0A0E08B
:2074E000B0E0E80EF91E0A1F1B1FE092AE01F092AF010093B0011093B10102C060DE582E1A
:20750000742423C0E090AE01F090AF010091B0011091B10116950795F794E79450DE682FFA
:20752000C701F7D48091AE019091AF01A091B001B091B1010296A11DB11D8093AE01909349
:20754000AF01A093B001B093B101219704C05524772444244394209709F0A5CF96E46916B6
:2075600041F485E0F40180935700E89507B600FCFDCF8DE03CDE82E080936F009CC0833492
:2075800071F40091AE011091AF0119DE90E021E0F8010C0120935700E89511247CCE8336C8
:2075A00019F5E090AE01F090AF010091B0011091B10105DEF701E16090E021E00C0120938C
:2075C0005700E895112482E090E0A0E0B0E0E80EF91E0A1F1B1FE092AE01F092AF0100936A
:2075E000B0011093B10157CE8D3661F4E091AE01F091AF0185E080935700E89507B600FCF2
:20760000FDCF49CE823551F4E091AE01F091AF0105911491812FEBDD802F4CC0843421F5FE
:20762000E090AE01F090AF010091B0011091B10116950795F794E794C2DD682FC70169D4DE
:207640008091AE019091AF01A091B001B091B1010296A11DB11D8093AE019093AF01A093D8
:20766000B001B093B10117CE843609F5E090AE01F090AF010091B0011091B101D801C70142
:20768000B695A795979587953CD4B1DD82E090E0A0E0B0E0E80EF91E0A1F1B1FE092AE010A
:2076A000F092AF010093B0011093B10104C08B3111F08FE39CDD83E08093E9009091E8002B
:2076C0008091E8008E778093E80095FF04C010C08EB38823C9F08091E80080FFF9CF809193
:2076E000E8008E778093E80003C08EB3882361F08091E80080FFF9CF84E08093E9008091F1
:20770000E8008B778093E800DF91CF911F910F91FF90EF90DF90CF90BF90AF909F908F90AC
:207720007F906F905F904F9008959091B601892F8F77813249F58091B7018032A1F081328A
:2077400019F5913A09F58091E800877F8093E8008DE091E067E070E00BD28091E8008B770B
:207760008093E8000895913279F48091E800877F8093E8008DE091E067E070E05DD2809192
:20778000E8008E778093E800089582E061EC42E0B5D083E061E842E1B1D084E060E842E1EF
:2077A000ADC084B7877F84BF88E10FB6F89480936000109260000FBE20E880E090E00FB63F
:2077C000F89420936100809361000FBE81E085BF92E095BF3F9A209A559AE1E6F0E02083A1
:2077E000108247985D9A289A109289008AEF8093880090936F0083E080938100F0C0409116
:20780000000850910108109201081092000894B714BE88E10FB6F8948093600010926000D5
:207820000FBE292F30E0F901E270F07091FD18C090FF05C0859194918F5F9F4F81F423FFFF
:207840000FC08091090190910A014817590741F0E0E0F0E0859194918F5F9F4F09F042DC64
:20786000A0DF78941092AD011092AC010CC0DEDC36D38091AC019091AD0181549F4110F00D
:207880001092140141DC80911401882381F78091E00081608093E00025DC80E090E0089598
:2078A000FA01923049F0933061F09130F9F485E191E022E130E01EC087E291E02EE330E04D
:2078C00019C0882329F485E691E024E030E012C0813029F489E691E022E230E00BC0823006
:2078E00029F48DE891E028E130E004C080E090E020E030E091838083C90108958093E9004E
:207900008091EB0081608093EB001092ED006093EC004093ED008091EE00881F8827881F62
:2079200008958091B60188238CF403C08EB38823B1F08091E80082FFF9CF8091E8008B772A
:207940008093E80008958EB3882349F08091E80080FFF9CF8091E8008E778093E800089594
:20796000EF92FF920F931F9345D04CD008ED10E0F80180818F77808380818068808380819B
:207980008F7D808319BC1EBA1092B40180EEE82EF12CF70180818B7F8083F8018081816052
:2079A000808380E060E042E0A9DFE1EEF0E080818E7F8083E2EEF0E0808181608083808144
:2079C00088608083F70180818E7F8083F8018081806180831F910F91FF90EF900895E7ED06
:2079E000F0E08081816080838AE482BF81E08093B501B6CFE8EDF0E080818E7F808310921C
:207A0000E20008951092DA001092E10008951F920F920FB60F9211242F933F934F935F93F6
:207A20006F937F938F939F93AF93BF93EF93FF938091DA0080FF1BC08091D80080FF17C0B2
:207A40008091DA008E7F8093DA008091D90080FF0BC080E189BD82E189BD09B400FEFDCF36
:207A600081E08EBB3BD203C019BC1EBA37D28091E10080FF17C08091E20080FF13C0809138
:207A8000E2008E7F8093E2008091E20080618093E2008091D80080628093D80019BC85E049
:207AA0008EBB1CD28091E10084FF2CC08091E20084FF28C080E189BD82E189BD09B400FEC5
:207AC000FDCF8091D8008F7D8093D8008091E1008F7E8093E1008091E2008F7E8093E20012
:207AE0008091E20081608093E2008091B401882331F48091E30087FD02C081E001C084E067
:207B00008EBBECD18091E10083FF21C08091E20083FF1DC08091E100877F8093E10082E06A
:207B20008EBB1092B4018091E1008E7F8093E1008091E2008E7F8093E2008091E2008061E9
:207B40008093E20080E060E042E0D8DEC7D1FF91EF91BF91AF919F918F917F916F915F9130
:207B60004F913F912F910F900FBE0F901F9018959C014091BC015091BD014617570718F49D
:207B8000F90190E044C06115710511F0AB01F8CF8091E8008E778093E80040E050E0F0CF0F
:207BA0008EB3882309F444C0853009F443C08091E80083FF02C081E008958091E80082FD70
:207BC00031C08091E80080FF22C08091F3009091F200782F60E0292F30E0262B372B07C07A
:207BE00081918093F100415050402F5F3F4F4115510519F02830310598F390E02830310566
:207C000009F491E08091E8008E778093E8004115510531F6992321F605C08EB3882341F075
:207C2000853041F08091E80082FFF7CF80E0089582E0089583E008959C016115710529F47C
:207C40008091E8008B778093E800F90126C08EB3882391F1853091F18091E80083FF02C06C
:207C600081E008958091E80082FFF1CF06C08091F10081936150704059F02091F300809191
:207C8000F200322F20E090E0822B932B892B79F78091E8008B778093E80061157105B9F601
:207CA00005C08EB3882341F0853041F08091E80080FFF7CF80E0089582E0089583E00895C2
:207CC0000F931F93DF93CF9300D0CDB7DEB7E6EBF1E08091F100819381E0EE3BF807C9F792
:207CE00024DD8091E80083FFE4C08091B6019091B701953009F46DC0963040F4913081F1A7
:207D0000913070F0933009F0D4C02AC0983009F4A3C0993009F4B2C0963009F0CAC07CC023
:207D2000803809F4C6C0823809F0C3C08091BA0187708093E9008091EB001092E9002091DB
:207D4000E800277F2093E80090E025E0969587952A95E1F781708093F1001092F10087C0D8
:207D6000882319F0823009F0A4C08F71823009F0A0C08091B801882331F52091BA01277097
:207D800009F497C02093E9008091EB0080FF1BC0933021F48091EB00806213C08091EB0018
:207DA00080618093EB0081E090E002C0880F991F2A95E2F78093EA001092EA008091EB00E5
:207DC00088608093EB001092E9008091E800877F51C0882309F06DC01091B8011F770FB79B
:207DE000F8948091E800877F8093E8009ADD8091E80080FFFCCF8091E3008078812B809398
:207E0000E30080688093E300112311F482E001C083E08EBB0FBF4DC08058823008F049C033
:207E20008091B8019091B9016091BA01AE014F5F5F4F36DDBC01009709F43BC08091E8008E
:207E4000877F8093E80089819A8192DE8091E8008B778093E8002DC0803859F58091E800AA
:207E6000877F8093E8008091B4018093F1008091E8008E778093E80054DD1BC08823C9F4CA
:207E80009091B8019230A8F48091E800877F8093E8009093B40145DD8091B401882331F420
:207EA0008091E30087FD02C081E001C084E08EBB6CDC8091E80083FF0AC08091EB0080624E
:207EC0008093EB008091E800877F8093E8000F900F90CF91DF911F910F91089508951F9360
:207EE0008EB3882361F01091E9001092E9008091E80083FF01C0E4DE17701093E9001F916F
:207F00000895F999FECF92BD81BDF89A992780B50895262FF999FECF1FBA92BD81BD20BDBD
:207F20000FB6F894FA9AF99A0FBE01960895F894FFCF4341544552494E4100777700080031
:207F40000000000000080112011001020000084123360001000201000109023E00020100FF
:207F600080320904000001020201000524001001042402040524060001070582030800FF0C
:207F800009040100020A000000070504021000010705830210000104030904220341007216
:207FA000006400750069006E006F0020004C0065006F006E006100720064006F0000001836
:1A7FC00003410072006400750069006E006F0020004C004C004300000000D7
:00000001FF
