:100000000C943E010C9466010C9466010C946601FC
:100010000C9466010C9466010C9466010C946601C4
:100020000C9466010C9466010C9499060C943F099B
:100030000C9466010C9466010C9466010C946601A4
:100040000C9466010C9466010C9466010C94660194
:100050000C9466010C9466010C9466010C94C80C17
:100060000C9466010C9441040C941B040C946601DE
:100070000C9466010C9466010C9466010C94660164
:100080000C9466010C9466010C9466010C94660154
:100090000C9466010C9466010C9466010C94660144
:1000A0000C9466010C9466010C946601FD041F0516
:1000B00048061F05480668058B0548060D061C0600
:1000C000A80BAB0B9A0B9E0BA20BCC0BCC0BCC0B47
:1000D000AF0BB30BB70BBD0BC10BCC0BC70B0000A9
:1000E0000000250028002B002E0031000404040429
:1000F00004030405020202020403020202020606CD
:1001000006060606040402020204040408020110A2
:100110004080401020408040800802040180402040
:100120001002011080102040402000000002000951
:100130000F0000030401000C00000000000000009C
:10014000000000000000000000080B000202020195
:10015000000904000001020200000524001001054E
:10016000240101010424020605240600010705817B
:100170000310004009040100020A00000007050204
:100180000240000007058302400000040309041236
:10019000010002EF02014041233680000101020309
:1001A0000141726475696E6F204C4C43004172646A
:1001B00075696E6F204C656F6E6172646F00000030
:1001C0000000240027002A002D00300009029900B9
:1001D000040100A0FA0904000002FF5D01001121E2
:1001E0000001012581140000000013010800000730
:1001F000058103200004070501032000080904010C
:100200000004FF5D03001B21000101018240010287
:10021000201683000000000000160300000000000C
:1002200000070582032000020705020320000407DF
:100230000583032000400705030320001009040282
:100240000001FF5D0200092100010122840700076F
:100250000584032000100904030000FFFD130406B9
:10026000410001010312010002FFFFFF405E048E06
:100270000214010102030100180D120D11241FBE0A
:10028000CFEFDAE0DEBFCDBF22E0A2E5B1E001C0F2
:100290001D92AA38B207E1F711E0A0E0B1E0E8EF63
:1002A000F5E202C005900D92A235B107D9F711E031
:1002B000CDE3D1E004C02197FE010E94D910CC33D8
:1002C000D107C9F70E94630D0C94EF120C94000043
:1002D000CF92DF92EF92FF920F931F93CF93DF9312
:1002E0006C017A018B01C0E0D0E0CE15DF0581F012
:1002F000D8016D918D01D601ED91FC910190F081B5
:10030000E02DC6010995892B11F02196EECF7E01D3
:10031000C701DF91CF911F910F91FF90EF90DF9078
:10032000CF900895089580E090E00895FC01538DEA
:10033000448D252F30E0842F90E0821B930B5417BF
:1003400010F0CF96089501970895FC01918D828D4C
:10035000981761F0828DDF01A80FB11D5D968C9119
:10036000928D9F5F9F73928F90E008958FEF9FEF24
:100370000895FC01918D828D981731F0828DE80FE0
:10038000F11D858D90E008958FEF9FEF0895FC019A
:10039000918D228D892F90E0805C9F4F821B910967
:1003A0008F73992708958DE591E00E94C70121E0A0
:1003B000892B09F420E0822F0895FC01848DDF0150
:1003C000A80FB11DA35ABF4F2C91848D90E00196C8
:1003D0008F739927848FA689B7892C93A089B189B7
:1003E0008C9182748C93938D848D981306C00288AF
:1003F000F389E02D80818F7D80830895EF92FF92B5
:100400000F931F93CF93DF93EC0181E0888F9B8D37
:100410008C8D981305C0E889F989808185FD26C0F7
:10042000F62E0B8D10E00F5F1F4F0F731127E02E7C
:100430008C8DE8120CC00FB607FCFACFE889F98959
:10044000808185FFF5CFCE010E94DD01F1CF8B8D3C
:10045000FE01E80FF11DE35AFF4FF0829FB7F894B9
:100460000B8FEA89FB898081806209C09FB7F8946D
:10047000EE89FF896083E889F989808182748083AD
:100480009FBF81E090E0DF91CF911F910F91FF908E
:10049000EF900895CF93DF93EC01888D8823C9F006
:1004A000EA89FB89808185FD05C0A889B9898C917D
:1004B00086FD0FC00FB607FCF5CF808185FFF2CF18
:1004C000A889B9898C9185FFEDCFCE010E94DD010D
:1004D000E7CFDF91CF91089580E090E0892B29F05C
:1004E0000E94D30181110C94000008952091E40032
:1004F0003091E50095E64091EC00842F817040FF3B
:1005000023C08091E80080FD1DC080916602882391
:1005100099F0853099F08091EB0085FD11C04091F4
:10052000E4005091E5002417350729F3915011F0AC
:100530009A01E1CF84E0089582E0089583E0089570
:1005400081E0089580E008954091E80042FFDDCF0A
:1005500008958091520187FF11C08091E80082FDCB
:1005600005C0809166028111F8CF11C08091E8002A
:100570008B770BC080916602882349F08091E80058
:1005800080FFF8CF8091E8008E778093E80008958F
:1005900020915801309159012617370748F061150D
:1005A000710539F42091E8002E772093E80001C00E
:1005B000B901382F492F20E06115710509F441C0B8
:1005C00080916602882309F44FC0853009F44EC03B
:1005D0008091E80083FD4CC08091E80082FD3EC020
:1005E0008091E80080FFE8CF5091F3002091F20065
:1005F000822F90E0952BE32FF42F8E1B9F0BAF01E2
:10060000480F591F20910C016115710559F0A22F57
:10061000B0E04A175B0730F421912093F10061505C
:100620007109EDCF822F90E021E08417950709F042
:1006300020E08091E8008E778093E8003E2F4F2FD6
:10064000BBCF2111BDCF0AC080916602882361F023
:10065000853061F08091E80083FD0AC08091E80058
:1006600082FFF2CF80E0089582E0089583E008954C
:1006700081E00895FC0124813581232B31F421E0B0
:1006800061157105A1F0FB0108C0FC018081918119
:100690006115710531F421E0FC018081882339F076
:1006A00005C00E94DF1221E0892B09F020E0822F93
:1006B00008950F931F93CF93DF93EC018881998165
:1006C000009729F02A813B812617370788F48B0190
:1006D0006F5F7F4F0E940012009761F099838883BB
:1006E0001B830A832C813D81232B11F4FC01108292
:1006F00081E001C080E0DF91CF911F910F910895BB
:10070000EF92FF920F931F93CF93DF93EC017B0146
:100710008A01BA010E9459032881398181110DC0D3
:100720002115310519F0C9010E947711198218822B
:100730001D821C821B821A8206C01D830C83B70196
:10074000C9010E94E812CE01DF91CF911F910F9154
:10075000FF90EF900895BF92CF92DF92EF92FF92B9
:100760000F931F93CF93DF937C016B01EA01890103
:100770002417350720F48D2FE901042F182FD701F6
:1007800011961C921E9213961C921E921297159609
:100790001C921E92149740E050E065E471E0C7019E
:1007A0000E948003F60184819581C817D907C0F59E
:1007B0008017910708F48C01D601ED91FC911197F7
:1007C000E00FF11FB08010826D917C916C0F7D1F46
:1007D0006115710561F0FB0101900020E9F7319787
:1007E000AF01461B570BC7010E94800313C0F701DE
:1007F00080819181009711F00E947711D7011196A5
:100800001C921E9215961C921E92149713961C927F
:100810001E921297D601ED91FC91E00FF11FB0826C
:10082000C701DF91CF911F910F91FF90EF90DF9063
:10083000CF90BF9008951F920F920FB60F92112480
:100840002F933F934F935F936F937F938F939F93D8
:10085000AF93BF93EF93FF938DE591E00E94DD018D
:10086000FF91EF91BF91AF919F918F917F916F9188
:100870005F914F913F912F910F900FBE0F901F905E
:1008800018951F920F920FB60F9211242F938F93EA
:100890009F93EF93FF93E0916D01F0916E01808142
:1008A000E0917301F091740182FD12C090818091FA
:1008B00076018F5F8F7320917701821751F0E0915D
:1008C0007601F0E0E35AFE4F958F8093760101C0E8
:1008D0008081FF91EF919F918F912F910F900FBE8B
:1008E0000F901F901895982F973068F59093E90016
:1008F000981739F07091EC002091ED005091F000C4
:1009000003C0242F762F50E021FD02C09F5FECCF63
:100910003091EB003E7F3093EB003091ED003D7F56
:100920003093ED003091EB0031603093EB00709329
:10093000EC002093ED005093F0002091EE0027FD95
:10094000E5CF80E008958F708093E90081E00895FD
:100950000F931F93CF93DF93CDB7DEB7AA970FB650
:10096000F894DEBF0FBECDBF80916602882309F4E4
:10097000D5C11091E9001F709091EC00892F817012
:1009800090FD80E8182B1092E9008091E80083FF29
:100990008DC1E2E5F1E08091F100819321E0EA353B
:1009A000F207C9F7809153018130A1F4809152017F
:1009B000813A81F48091E800877F8093E80064E1C8
:1009C00070E087E692E00E94C8028091E8008B7791
:1009D0008093E8008091E80083FF5AC18091520122
:1009E00090915301492F50E04A30510508F050C111
:1009F000FA01EA5AFF4F0C94D910803881F08238FE
:100A000009F046C1809156018F708093E900809172
:100A1000EB0085FB882780F91092E90006C08091E1
:100A2000630290916402911182609091E800977F37
:100A30009093E8008093F1001092F100F9C0282F04
:100A40002D7F09F025C1882319F0823061F020C183
:100A500080915401813009F01BC1933009F080E08E
:100A6000809364022BC080915401811127C0809132
:100A700056018F7009F40CC18093E9002091EB00BE
:100A800020FF1CC0933021F48091EB00806214C0E1
:100A90009091EB0090619093EB0021E030E0A90190
:100AA00002C0440F551F8A95E2F74093EA00109266
:100AB000EA008091EB0088608093EB001092E900DF
:100AC0008091E800877F8093E8000E94A902E0C03F
:100AD0008111DEC0009154010F778091E30080788E
:100AE000802B8093E3008091E800877F8093E8006B
:100AF0000E94A9028091E80080FFFCCF8091E30072
:100B000080688093E300011102C082E001C083E0AD
:100B100080936602BDC08058823008F0B9C08091D1
:100B20005401909155018C3D53E0950779F583E090
:100B30008A838AE289834FB7F894DE01139620E016
:100B40003EE051E2E32FF0E050935700E49120FFA4
:100B500003C0E295EF703F5FEF708E2F90E0EA30B8
:100B600010F0C79601C0C0968D939D932F5F2431DE
:100B700049F74FBF8091E800877F8093E8006AE2E1
:100B800070E0CE0101960E94C80241C0892F9927CA
:100B90008130910509F48EC0029709F079C089E986
:100BA00090E0ECECF1E08AC0853089F18091E800BA
:100BB00083FD2DC08091E80082FDABC08091E800EC
:100BC00080FF1DC04091F3008091F20090E0942BD3
:100BD0008E1B9F0BBF01680F791F40910C012115DF
:100BE000310509F07AC0842F90E041E0861797071D
:100BF00009F040E08091E8008E778093E8002115AD
:100C0000310509F477C0809166028111CDCF8091C2
:100C1000E8008B778093E8003BC08038C9F580916D
:100C2000E800877F8093E800809165028093F1005F
:100C30008091E8008E7747CF81112AC080915401BE
:100C400090915501992702971CF58091E800877FC4
:100C50008093E80080915401809365020E94A9026C
:100C600080916502882371F084E08093660242E2FD
:100C700061EC81E00E94730442E261EC83E00E9437
:100C8000730406C08091E30087FDEECF81E0EDCFD5
:100C90008091E80083FF0AC08091E800877F8093FD
:100CA000E8008091EB0080628093EB001F7010934E
:100CB000E90034C082E190E0E5E6F2E02091E8004E
:100CC000277F2093E8002091580130915901821725
:100CD000930708F49C0140E092CFA42FB0E06A177C
:100CE0007B0708F080CF44914093F100319621506A
:100CF000310970CF411187CF0CC0809166028823E3
:100D000009F485CF853009F482CF8091E80083FD16
:100D10007ECF8091E80082FFF0CF79CFAA960FB600
:100D2000F894DEBF0FBECDBFDF91CF911F910F9121
:100D300008951F920F920FB60F9211242F933F9395
:100D40004F935F936F937F938F939F93AF93BF93D3
:100D5000EF93FF938091E10082FF09C08091E20050
:100D600082FF05C08091E1008B7F8093E10080913C
:100D7000DA0080FF1BC08091D80080FF17C08091EF
:100D8000DA008E7F8093DA008091D90080FF0BC05B
:100D900080E189BD82E189BD09B400FEFDCF81E01B
:100DA0008093660203C019BC109266028091E10034
:100DB00080FF17C08091E20080FF13C08091E200A5
:100DC0008E7F8093E2008091E20080618093E20058
:100DD0008091D80080628093D80019BC85E0809310
:100DE00066028091E10084FF2EC08091E20084FFC2
:100DF0002AC080E189BD82E189BD09B400FEFDCF32
:100E00008091D8008F7D8093D8008091E1008F7E03
:100E10008093E1008091E2008F7E8093E2008091D8
:100E2000E20081608093E20080916502882311F0E6
:100E300084E007C08091E30087FD02C081E001C02B
:100E400083E0809366028091E10083FF31C080914E
:100E5000E20083FF2DC08091E100877F8093E10055
:100E600082E080936602109265028091E1008E7F9D
:100E70008093E1008091E2008E7F8093E200809178
:100E8000E20080618093E20020910C0130E088E074
:100E900090E040E08217930720F44F5F880F991F7E
:100EA000F9CF4295407F426060E080E00E94730489
:100EB000FF91EF91BF91AF919F918F917F916F9132
:100EC0005F914F913F912F910F900FBE0F901F9008
:100ED00018950F931F93CF93DF9380916602843010
:100EE00059F581E08093E9008091E80080FF24C0FB
:100EF0000E94760281111BC0C4E1D0E007E612E037
:100F000007C0F80181918F018093F100219779F05A
:100F10008091E80085FDF5CF8091E8008E77809381
:100F2000E8000E94A8040E947602882389F3809139
:100F3000E8008E778093E800DF91CF911F910F91A9
:100F40000C94A80420915C01211103C08FEF9FEF46
:100F500008955FB7F89422E02093E9002091F20011
:100F600030E01216130614F421E030E0422FFC01A9
:100F700084E6415038F02898809312029091F10055
:100F80009193F7CF2115310521F08091F20088234C
:100F900019F05FBFC90108958BE68093E800F9CF8F
:100FA0002FB7F89483E08093E9009091E800892FAF
:100FB000807295FF04C09091F20080E4891B2FBFDE
:100FC000089580910A0281110DC082E0809306028B
:100FD00084E080930702109209021092080281E0D7
:100FE00080930A0286E092E00895CF93DF931F92E8
:100FF000CDB7DEB76983DC01ED91FC910280F3810E
:10100000E02D41E050E0BE016F5F7F4F09950F90EA
:10101000DF91CF91089583E08093E9008091F20001
:10102000882319F08AE38093E80008950E94D0078E
:1010300090E00895CF93DF931F92CDB7DEB7FC0108
:101040008485958597FD05C02FEF3FEF3587248771
:101050000BC0CE0101960E94A207019719F4898165
:1010600090E002C08FEF9FEF0F90DF91CF91089536
:101070000F931F93CF93DF931F92CDB7DEB78C01F1
:10108000FC018485958597FF0EC0CE0101960E94D4
:10109000A207019719F4898190E002C08FEF9FEFBA
:1010A000F80195878487F801848595850F90DF91F5
:1010B000CF911F910F910895FC018485958597FD2F
:1010C0000BC09FB7F89482E08093E9008091F20012
:1010D0009FBF90E0019608959FB7F89482E08093B7
:1010E000E9008091F2009FBF90E0089540910202D4
:1010F00050910302209100023091010242175307E0
:10110000B4F49091E8009570E1F39091E80092FDBD
:1011100019C08093F1008091020290910302019620
:101120008F739927892B19F48EEF8093E8008091B3
:1011300002029091030201969093030280930202AF
:1011400081E0089580E00895DF92EF92FF920F937F
:101150001F93CF93DF93D82EF92EE42E062F10E0A5
:10116000C8010196880F0E94760883E00E947608E5
:10117000CD2DDF2D0C0F1D1FC017D10789F0E7FE05
:1011800003C0FE01849101C088810E947608F82E78
:1011900080E00E9476088F2121968111EDCF01C059
:1011A00081E0DF91CF911F910F91FF90EF90DF9041
:1011B0000895DF92EF92FF920F931F93CF93DF93E7
:1011C000D82E8A017B01E40EF51EEB01CE15DF055A
:1011D00071F0D7FE03C0FE01849101C088810E9496
:1011E000760821968111F2CF8FEF9FEF01C0C801E1
:1011F000DF91CF911F910F91FF90EF90DF900895B5
:101200000F931F93CF93DF931F92CDB7DEB782E08A
:10121000898342E450E069E471E080E80E94D908E3
:101220000E94E107DC0112960D911C9113970115A4
:10123000110589F0D801ED91FC910280F381E02D38
:10124000BE016F5F7F4FC801099597FD04C0F8018B
:1012500000851185ECCF89810F90DF91CF911F918F
:101260000F910895615030F02091F100FC0120832E
:101270000196F8CF289884E68093120208951F9271
:101280000F920FB60F921124CF92DF92EF92FF923E
:101290000F931F932F933F934F935F936F937F937E
:1012A0008F939F93AF93BF93EF93FF93CF93DF936E
:1012B000CDB7DEB76C97DEBFCDBF1092E90080914D
:1012C000E80083FFFBC168E0CE0145960E94320929
:1012D00082EF8093E8008D8987FF05C09091E80038
:1012E00090FFFCCF03C09EEF9093E800982F90767C
:1012F00009F0C6C09E894F89588D2F89F88C9111AD
:101300000CC0803829F480915A018093F10002C00A
:101310001092F1001092F10045C1913051F4811109
:1013200041C14130510509F03DC180915A018D7F85
:101330000BC0933061F4811135C14130510509F082
:1013400031C180915A01826080935A012BC195303E
:1013500049F48091E80080FFFCCF822F8068809361
:10136000E30020C1963009F05EC00B8D1C8D22E099
:101370001092E9001092030210920202F21232C09F
:1013800010920102109200020E94000999E0BE0131
:101390006F5F7F4FDB01E92F1D92EA95E9F7998393
:1013A000FA8291E09E8390EA98879AEF998720913C
:1013B000020230910302275F3F4F3C832B838D83D2
:1013C0001092E9001092030210920202109301029F
:1013D0000093000249E050E080E00E94D9080E949A
:1013E0000009E0C010930102009300020E94E1078F
:1013F000DC0112960D911C9113970115110509F44A
:10140000BBC0D801ED91FC910480F581E02DBE01B7
:101410006B5E7F4FC8010995009709F0C7C0F801BE
:1014200000851185EACF973009F445C1983021F441
:1014300081E08093F100B6C0993009F0B3C08370A9
:1014400009F039C1E4E1F1E081E031E096E3208187
:10145000211109C08EE78093EA001092EA008F897B
:1014600080935C019FC08093E9003093EB00219151
:101470002093EC009093ED008F5F873041F7EACF27
:101480008B8D9C8D1092E900109203021092020243
:101490009093010280930002898D811153C08E893F
:1014A0009D89913A49F4813209F005C147E050E045
:1014B00064E071E080E0BBC0913209F0FCC083328F
:1014C00069F48F89988DA0E0B0E08093000190933B
:1014D0000101A0930201B093030164C0803269F45A
:1014E0008091E80082FFFCCF67E084E091E00E94F9
:1014F00032098BEF8093E80055C0823209F052C068
:101500008F8980930B01EEEFFFE7859194918B3FDC
:101510009C4D19F0E0E0F8E002C0EEEFFAE08091B7
:10152000040190910501A0910601B0910701803B53
:101530009440A105B10509F09EC080910B0180FF88
:1015400079C099C00E94E107FC0102811381011555
:10155000110509F4B0C0D801ED91FC910190F08122
:10156000E02DBE016B5E7F4FC801099581111AC045
:10157000F80100851185EBCFF1E0FF1609F44EC0AC
:10158000F3E0FF1298C08F89882309F44AC08230A3
:1015900089F440E860E18DEA91E00E94A408882384
:1015A00009F489C08EEF8093E80088C018161906E8
:1015B000CCF381C0813029F440E86BE081EA91E00E
:1015C000ECCF833009F077C00E94E107DC0112966E
:1015D000ED90FC9013978E010F5F1F4F6801E1148F
:1015E000F10479F0D701ED91FC910680F781E02DAF
:1015F000B801C7010995080F111DF701E084F184B6
:10160000EECFD8011C92F60101900020E9F7319746
:10161000BF016C197D0940E0C601BFCF6FE871E0E2
:1016200002C06BE871E0FB01449150E080E80E9449
:10163000D908B8CFEE3F2AE0F20751F080819181BE
:101640008737A7E79A0721F09093FF0A8093FE0A55
:1016500087E797E7918380838091600080930402FD
:101660009BE088E10FB6F894A895809360000FBEC8
:101670009093600097CF808191818737974709F0D9
:1016800091CFA895809160008861809360008091DF
:10169000040280936000EE3FBAE0FB0739F08091CE
:1016A000FE0A9091FF0A918380837CCF1092FF0AFB
:1016B0001092FE0A77CF81E28093EB006C960FB612
:1016C000F894DEBF0FBECDBFDF91CF91FF91EF91B8
:1016D000BF91AF919F918F917F916F915F914F914A
:1016E0003F912F911F910F91FF90EF90DF90CF903E
:1016F0000F900FBE0F901F901895362F90E0FC01B1
:10170000E65DFE4F4491FC01E55FFE4F2491FC0134
:10171000E451FF4F8491882309F452C04423E1F13E
:1017200050E0FA013197EF30F105B0F5E05AFF4F84
:101730000C94D910909180009F7707C09091800001
:101740009F7D03C090918000977F9093800024C07C
:1017500094B59F7702C094B59F7D94BD1DC09091B4
:1017600090009F7707C0909190009F7D03C090915B
:101770009000977F909390000FC09091C0009F774A
:1017800003C09091C0009F7D9093C00005C09091D0
:10179000C200977F9093C200E82FF0E0EE0FFF1F8A
:1017A000E252FF4FA591B4919FB7F894311104C054
:1017B0008C912095282302C0EC912E2B2C939FBF57
:1017C00008958F929F92AF92BF92CF92DF92EF9245
:1017D000FF926B017C010E94A30C4B015C01C114C0
:1017E000D104E104F104F1F00E94A30CDC01CB016F
:1017F00088199909AA09BB09883E9340A105B1053A
:1018000070F321E0C21AD108E108F10888EE880ED1
:1018100083E0981EA11CB11CC114D104E104F104A1
:1018200019F7DDCFFF90EF90DF90CF90BF90AF9092
:101830009F908F9008958F929F92AF92BF92CF9278
:10184000DF92EF92FF920F931F93CF93DF936C0180
:101850007B018A0180910B01882309F45CC080918F
:101860005C01882309F457C080915B0180FF05C0AB
:101870008091E00082608093E000E801B12C8AEF63
:10188000A82E93E0892E2AE3922E209711F4BB20F4
:10189000D9F10E94D00781110AC0AA94AA20D9F1D7
:1018A00061E070E080E090E00E94E10BEECF282F35
:1018B00030E0C217D3070CF48C2F9FB7F8948092B6
:1018C000E9002091E80025FF1DC0282F30E0C21B51
:1018D000D30BF701815020F041914093F100FACFF2
:1018E000E20EF31EBB2019F09092E8000AC080912E
:1018F000E80085FD07C09092E800BB24B3942097D0
:1019000009F0B12C9FBFC1CF5D9884E6809305029A
:101910001016110644F081E090E0F6019383828373
:1019200080E090E001C0C801DF91CF911F910F913D
:10193000FF90EF90DF90CF90BF90AF909F908F90EF
:1019400008950E94C6123FB7F89480918202909148
:101950008302A0918402B091850226B5A89B05C0A0
:101960002F3F19F00196A11DB11D3FBFBA2FA92F1E
:10197000982F8827820F911DA11DB11DBC01CD019B
:1019800042E0660F771F881F991F4A95D1F7089587
:101990001F920F920FB60F9211242F933F938F93A4
:1019A0009F93AF93BF9380917E0290917F02A0910D
:1019B0008002B091810230917D0223E0230F2D3708
:1019C00020F40196A11DB11D05C026E8230F029643
:1019D000A11DB11D20937D0280937E0290937F0212
:1019E000A0938002B0938102809182029091830241
:1019F000A0918402B09185020196A11DB11D809332
:101A0000820290938302A0938402B0938502BF91D7
:101A1000AF919F918F913F912F910F900FBE0F909B
:101A20001F9018958091FA019091FB010C94771109
:101A3000E3E1F2E01382128288EE93E0A0E0B0E0EE
:101A400084839583A683B7832EE131E0318320839D
:101A50002FEF3FEF35872487EDE5F1E01382128207
:101A600084839583A683B78380E391E09183808309
:101A70008DEC90E0958784878CEC90E09787868743
:101A800088EC90E0918B808B89EC90E0938B828B3B
:101A90008AEC90E0958B848B8EEC90E0978B868B14
:101AA000118E128E138E148EEAEFF1E011821082E5
:101AB000138212821582148240E050E065E471E0E6
:101AC000CF010C948003CF93DF93CDB7DEB762973D
:101AD0000FB6F894DEBF0FBECDBF789484B5826098
:101AE00084BD84B5816084BD85B5826085BD85B5C2
:101AF000816085BD80916E00816080936E00109240
:101B000081008091810082608093810080918100BA
:101B1000816080938100809180008160809380004B
:101B2000809191008260809391008091910081600A
:101B300080939100809190008160809390008091CB
:101B4000C10084608093C1008091C1008260809355
:101B5000C1008091C10081608093C1008091C30069
:101B600081608093C3008091C00082608093C00038
:101B70008091C20081608093C20080917A0084606D
:101B800080937A0080917A00826080937A008091BD
:101B90007A00816080937A0080917A0080688093D7
:101BA0007A0010925C0110925A0110925B018091B0
:101BB000D70081608093D70080EA8093D80089B5F0
:101BC000806189BD89B5826089BD09B400FEFDCF01
:101BD00061E070E080E090E00E94E10B8091D8002D
:101BE0008F7C80618093D8008091E000807F80931B
:101BF000E0008091E1008E7E8093E1008DE0809393
:101C0000E200559A209AE8E1F1E02491E9EFF0E052
:101C10008491882399F090E0880F991FFC01E25489
:101C2000FE4FA591B491FC01E252FF4F8591949132
:101C30008FB7F894EC91E22BEC938FBF60E08DE0CE
:101C40000E947D0B80E8809361001092610085B74F
:101C5000806885BF85B7806885BFE0916D01F09190
:101C60006E0182E08083E0916901F0916A01108247
:101C7000E0916B01F0916C018FEC80831092750103
:101C8000E0917101F091720186E08083E0916F0133
:101C9000F0917001808180618083E0916F01F0910B
:101CA0007001808188608083E0916F01F091700104
:101CB000808180688083E0916F01F0917001808164
:101CC0008F7D80839FE088E10FB6F894A89580937C
:101CD00060000FBE9093600084E1E7E6F2E0DF0170
:101CE000982F1D929A95E9F7809368028091D80009
:101CF0008F7E8093D8008091D70081608093D70039
:101D000084E082BF81E080937B028091D8008E7F47
:101D10008093D8001092E2001092DA001092E10055
:101D20008091D8008F778093D8008091D800806808
:101D30008093D8008091D8008F7D8093D80019BC03
:101D40001092660210926502109264021092630271
:101D5000ECE6F2E0E491E0930C018091E0008B7FEF
:101D60008093E0008091D80081608093D80020911A
:101D70000C0130E088E090E040E08217930720F407
:101D80004F5F880F991FF9CF4295407F426060E016
:101D900080E00E9473048091E1008E7F8093E100D7
:101DA0008091E20081608093E2008091E20088608F
:101DB0008093E2008091E0008E7F8093E00080912C
:101DC000D80080618093D8007894FF24F39400E0D9
:101DD00010E8A8958DE591E00E94C701892B69F173
:101DE0008DE591E00E94A501B82E89831A82C090EA
:101DF000FE01D090FF01AFEFCA1ADA0AB6018AEFEE
:101E000091E00E945903882399F02091FA013091C2
:101E1000FB018091FE019091FF01BE016F5F7F4F3A
:101E2000820F931F0E94E812D092FF01C092FE0120
:101E3000BAE0BB1202C0F0927C0280917C0288233F
:101E400009F43FC110927C022091FE013091FF0104
:101E500041E050E06AEF71E0CE010D960E94AB03C5
:101E600089899A89892B69F0CD84DE846DE270E0DE
:101E7000C6010E94D412009721F09C012C193D0943
:101E800002C02FEF3FEF40E050E0BE01635F7F4FA5
:101E9000CE0107960E94AB03C988DA88C114D10429
:101EA00069F0AD84BE846DE270E0C5010E94D41279
:101EB000009721F0AC014A195B0902C04FEF5FEFB8
:101EC0004F5F5F4F9601BE01635F7F4FCE0101966A
:101ED0000E94AB0361E08DE00E947D0B6EE371E038
:101EE000CE0107960E943A03882389F010936E0270
:101EF00000936D020E94690764E670E080E090E064
:101F00000E94E10B10926E0210926D02C2C060E45A
:101F100071E0CE0107960E943A038111E7CF62E497
:101F200071E0CE0107960E943A03882389F010934E
:101F3000700200936F020E94690764E670E080E01F
:101F400090E00E94E10B1092700210926F02A1C00B
:101F500064E471E0CE0107960E943A038111E7CF55
:101F600066E471E0CE0107960E943A03882389F067
:101F7000809169028460809369020E94690764E627
:101F800070E080E090E00E94E10B809169028B7F1D
:101F90004AC069E471E0CE0107960E943A038823A3
:101FA00089F0809169028860809369020E946907C4
:101FB00064E670E080E090E00E94E10B80916902AD
:101FC000877F31C06CE471E0CE0107960E943A032E
:101FD000882389F0809169028160809369020E9460
:101FE000690764E670E080E090E00E94E10B809178
:101FF00069028E7F18C06FE471E0CE0107960E94DF
:102000003A03882399F08091690282608093690283
:102010000E94690764E670E080E090E00E94E10BB6
:10202000809169028D7F8093690233C08F8198858A
:10203000009719F00E94661003C060E070E0CB01C9
:102040006150710989F480916A02806280936A020A
:102050000E94690764E670E080E090E00E94E10B76
:1020600080916A028F7D13C06130710591F4809177
:102070006A02806180936A020E94690764E670E0E8
:1020800080E090E00E94E10B80916A028F7E809355
:102090006A0260E08DE00E947D0B40E050E065E464
:1020A00071E08AEF91E00E94800389819A810E9409
:1020B00077118F8198850E9477118D859E850E946A
:1020C00077110E9469070E946C0283CE1F93FC0166
:1020D00099278827BC01E89411911032E9F319304F
:1020E00010F01E30C8F31B3251F01D3249F46894D1
:1020F00006C00E948D10610F711D811D911D1191EF
:1021000010531A30B0F33EF4909580957095619518
:102110007F4F8F4F9F4F1F910895592F482F372F73
:10212000262F660F771F881F991F660F771F881F3E
:10213000991F620F731F841F951F660F771F881FDB
:10214000991F08952F923F924F925F926F927F92C4
:102150008F929F92AF92BF92CF92DF92EF92FF92B7
:102160000F931F93CF93DF93CDB7DEB7CA1BDB0B63
:102170000FB6F894DEBF0FBECDBF09942A88398808
:1021800048885F846E847D848C849B84AA84B9840F
:10219000C884DF80EE80FD800C811B81AA81B9811B
:1021A000CE0FD11D0FB6F894DEBF0FBECDBFED012F
:1021B0000895EE0FFF1F0590F491E02D09940F9301
:1021C0001F93CF93DF938230910510F482E090E06B
:1021D000E0918802F091890220E030E0A0E0B0E0D8
:1021E000309719F1408151810281138148175907B5
:1021F000C8F08417950769F4109731F012960C9384
:10220000129713961C9327C000938802109389029B
:1022100022C02115310519F04217530718F49A010D
:10222000BD01EF01DF01F801DBCF21153105F9F028
:10223000281B390B2430310580F48A819B8161157C
:10224000710521F0FB019383828304C0909389027E
:1022500080938802FE01329644C0FE01E20FF31F14
:102260008193919322503109398328833AC0209178
:10227000860230918702232B41F420910F01309187
:102280001001309387022093860220910D01309136
:102290000E012115310541F42DB73EB740911101D2
:1022A00050911201241B350BE0918602F0918702B8
:1022B000E217F307A0F42E1B3F0B2817390778F01D
:1022C000AC014E5F5F4F2417350748F04E0F5F1F7C
:1022D00050938702409386028193919302C0E0E07D
:1022E000F0E0CF01DF91CF911F910F910895CF932F
:1022F000DF93009709F481C0FC01329713821282A8
:10230000A0918802B0918902109781F420813181D7
:10231000820F931F20918602309187022817390778
:1023200051F5F0938702E093860267C0ED0120E04B
:1023300030E0CE17DF0740F44A815B819E014115F2
:102340005105F1F0EA01F5CFD383C2834081518179
:10235000840F951FC817D90759F488819981840F74
:10236000951F0296918380838A819B8193838283C8
:102370002115310529F4F0938902E09388023DC0CC
:10238000E901FB83EA8349915991C40FD51FEC17EA
:10239000FD0761F480819181840F951F0296E90108
:1023A00099838883828193819B838A83E0E0F0E034
:1023B00012968D919C911397009719F0FD01DC0105
:1023C000F7CF8D919C9111979D012E5F3F4F820F0A
:1023D000931F20918602309187022817390769F4EC
:1023E000309729F4109289021092880202C0138259
:1023F0001282B0938702A0938602DF91CF91089555
:10240000A0E0B0E0E6E0F2E10C94A610EC01009749
:1024100021F4CB010E94DF10B4C0FC01E60FF71FCE
:102420009C0122503109E217F30708F4A8C0D90132
:102430000D911C91119706171707B0F00530110583
:1024400008F49BC0C80104978617970708F495C045
:1024500002501109061B170B019311936D937C9386
:10246000CF010E94771189C05B01A01AB10A4C010B
:10247000800E911EA0918802B0918902612C712C6E
:10248000E12CF12C109709F446C08D919C91119785
:10249000A815B905B1F56C0142E0C40ED11CCA14EF
:1024A000DB0478F14C018A189B08640142E0C40EF9
:1024B000D11C1296BC9012971396AC91B5E0CB1636
:1024C000D10440F0B282A38391828082D9016D93BE
:1024D0007C9309C00E5F1F4F800F911FF9019183FC
:1024E0008083EB2DFA2FE114F10431F0D70113961C
:1024F000FC93EE93129741C0F0938902E093880217
:102500003CC06816790608F43C017D0112960D90D6
:10251000BC91A02DB7CF809186029091870288163A
:102520009906E1F466167706C8F480910D01909142
:102530000E01009741F48DB79EB740911101509163
:102540001201841B950BE817F907C8F4F093870272
:10255000E0938602F901718360830FC0CB010E9472
:10256000DF107C01009759F0A801BE010E94CB1238
:10257000CE010E947711C70104C0CE0102C080E0E5
:1025800090E0CDB7DEB7EEE00C94C21081E090E0B1
:10259000F8940C94EF12FB01DC0102C001900D9243
:1025A00041505040D8F70895FC018191861721F0E1
:1025B0008823D9F7992708953197CF010895FB0112
:1025C000DC018D91019080190110D9F3990B0895C8
:1025D000FB01DC0101900D920020E1F7089511E06C
:1025E000CDE3D1E004C0FE010E94D9102196CE3384
:0825F000D107C9F7F894FFCFF1
:1025F800FFFFFFFF00E10000000000000800008A64
:1026080002800000C1808100000000000000F50782
:102618001B0C16080B085C081A0838080000000094
:10262800FE01680196014A02C701A501B9014C00E3
:102638005200550044004C48005248005548004498
:02264800480048
:00000001FF
